:020000040800F2
:10000000A0B60220F90200087B2900087729000821
:10001000792900085F1C0008952F000800000000E7
:100020000000000000000000000000009F29000800
:10003000611C0008000000009D290008A12900089B
:100040001303000813030008130300081303000838
:100050001303000813030008130300081303000828
:100060001303000813030008130300081303000818
:100070001303000813030008130300081303000808
:1000800013030008130300081303000813030008F8
:1000900013030008130300081303000813030008E8
:1000A00013030008130300081303000813030008D8
:1000B00013030008130300081303000813030008C8
:1000C00013030008130300081303000813030008B8
:1000D00013030008C92E000813030008392F000875
:1000E0001303000813030008130300081303000898
:1000F0001303000813030008130300081303000888
:100100001303000813030008130300081303000877
:100110001303000813030008130300089D2A0008B6
:100120001303000813030008130300081303000857
:100130001303000813030008130300081303000847
:100140001303000813030008130300081303000837
:100150001303000813030008130300081303000827
:100160001303000813030008130300081303000817
:100170001303000813030008130300080000000025
:1001800013030008130300081303000813030008F7
:1001900013030008130300081303000813030008E7
:1001A00013030008130300081303000800F002F80B
:1001B00000F092F80AA090E8000C82448344AAF16F
:1001C0000107DA4501D100F087F8AFF2090EBAE86D
:1001D0000F0013F0010F18BFFB1A43F0010318477B
:1001E00084380000A4380000103A24BF78C878C1D1
:1001F000FAD8520724BF30C830C144BF04680C602D
:10020000704700000023002400250026103A28BF74
:1002100078C1FBD8520728BF30C148BF0B60704778
:100220006E2900F0B082702900F01B84662903F06B
:100230005283652903F04F83672903F04C836129BA
:1002400003F04B8303681B0A28BF41F08001692932
:1002500000F0D280642900F0CF80752900F0CC80B6
:100260006F2900F0A983782900F0E783E92900F0DD
:100270004383E42900F04083F52900F03D83EF2912
:1002800000F0A683F82900F0E6830368DB0928BFA5
:1002900041F08001632900F0B282732900F0B78237
:1002A000E32900F0C387F32900F0C88700207047D6
:1002B0001FB503F00BFB01F017F80400002000212C
:1002C00003F0EEFA401C60600020002103F0D2FA37
:1002D000E0601FBD10B510BD00F0D8FF1146FFF75C
:1002E000E7FF03F06BF901F0B1F803B4FFF7F2FF99
:1002F00003BC02F06FFE0000094880470948004730
:10030000FEE7FEE7FEE7FEE7FEE7FEE7FEE7FEE7C5
:10031000FEE7FEE704480549054A064B7047000022
:10032000492A0008AD010008A0B00220A0B60220B2
:10033000A0B20220A0B20220704700001CB50C46FB
:10034000064B7B4469460090204600F036FA04468E
:100350000020694600F044FA20461CBD9B040000C2
:100360000FB4044910B503AA029800F055FA10BC66
:100370005DF814FB200000200FB41CB5084B06AA42
:100380007B4469460090059800F017FA0446002067
:10039000694600F025FA20461CBC5DF814FB0000FD
:1003A0005D04000070B50C460546012A05D028788A
:1003B000800600D5EA69002302E0012305E05B1C0A
:1003C000934202D2E05C0028F9D1A869E618C01A6D
:1003D000A861286A18442862284600F042F904E01F
:1003E000D5E9012114F8010B9047B442F8D328460F
:1003F00000F04DF970BD00002DE9F04106460024E3
:1004000010687529314616A510D000F051F9002862
:1004100002DA404213A507E031688A0701D512A528
:1004200002E0490704D511A5012401E000F049F9D3
:1004300000210A2206F1240709E0B0FBF2FCB0FB20
:10044000F2F302FB1C00303078541846491C002897
:10045000F3D123462A463046BDE8F04100F03AB9D0
:10046000000000002D0000002B0000002000000014
:100470002DE9F05F894604464FF0000ADFF874B1B9
:10048000FB44C0F820A02046E1688847002874D0CB
:10049000252806D0D4E901219047206A401C20621B
:1004A000F1E700265F462046E16888472028054698
:1004B00007DB312D05D2781910F8200C08B106435E
:1004C000F1E7B00701D526F00406C4F81CA0002708
:1004D000C4F818A02A2D09D0284602F074FD38B3BC
:1004E00004EB8708303DC8F8185019E059F8041B90
:1004F000204604EB87029161E1688847012F054699
:1005000018D1E069002820DA26F020061DE0D8F88E
:10051000180000EB800005EB40003038C8F81800E8
:100520002046E1688847054602F04DFD0028EED1DF
:10053000012F0AD02E2D08D12046E16888477F1C64
:100540000546022F46F02006C4DBA069002803DA26
:10055000404246F00106A061F00701D026F01006E7
:100560006C2D0BD0682D09D04C2D39D06A2D35D08B
:10057000742D35D07A2D33D016E038E0E1682F465F
:1005800020468847B842054609D16C2F26D04FF443
:100590008060E168064320468847054604E06C2FEA
:1005A0001AD04FF4807006430DB3A5F1410019280D
:1005B00002D8203546F400664A4629462046266081
:1005C0004E46FFF72DFE80B101280BD0F61D26F018
:1005D000070000F1080956E74020E4E78020D8E74B
:1005E0000020D6E706F104094DE7284652E7206AC5
:1005F000BDE8F09F9034000030B505460B462A4612
:1006000013F8014B12F8010B08B1A042F8D01CB14D
:10061000002802D06D1CF1E7284630BD10B5431C00
:1006200002E010F8011B71B18107FAD14FF00132DD
:1006300002C88C1A8C4314EAC211F9D0C01A0A06F7
:1006400003D0C01E10BDC01A10BD0A0401D0801E08
:1006500010BD0902FCD0401E10BD704770477047A6
:10066000704770B5044685690068C10601D530261B
:1006700000E02026C00707D070BDD4E90121304634
:100680009047206A401C20626D1EF6D570BD70B583
:10069000044685690078C00707D170BDD4E90121FF
:1006A00020209047206A401C20626D1EF6D570BD48
:1006B00009684A0501D540B27047C905FCD500B2AA
:1006C000704709684A0501D5C0B27047C905FCD515
:1006D00080B270472DE9F0470D4699469246044690
:1006E00000F124080168880604D5E06921F01001B2
:1006F000216000E00120A84201DD471B00E0002747
:10070000A1697A1902EB0900081AA0612078C006D5
:1007100002D42046FFF7A5FF002608E0D4E9012116
:100720001AF806009047206A401C761C20624E454D
:10073000F4DB2078C0060AD52046FFF792FF06E0DA
:10074000D4E9012130209047206A401C2062381EE5
:10075000A7F10107F4DC07E0D4E9012118F805004E
:100760009047206A401C2062281EA5F10105F3DC99
:100770002046FFF78CFF2078000602D50220BDE856
:10078000F0870120FBE711680268006A530501D574
:1007900008700AE0D30501D5088006E0130603D5EA
:1007A000C217C1E9000200E00860012070470000A4
:1007B00001694A1C02610878704700B58FB0CDE925
:1007C00001310021059105497944CDE90310114615
:1007D0006846FFF74DFE0FB000BD0000E5FFFFFFCC
:1007E0000A6802F8010B0A60704710B5436913B13B
:1007F000AFF3008001E0FFF7D5FD012010BD1278B6
:1008000000F124010A7000224A700122EDE711680C
:100810004FF0FF32E9E70000074B70B50D467B440F
:10082000FFF7CBFF0446284600F00CFD10B14FF057
:10083000FF3070BD204670BD872D00002DE9FF5FA1
:1008400015468A460446DFF8AC80F8440027D8E90C
:1008500000103E46CDE9001010E03AF816106A4646
:1008600002A800F0F3FC411C07D02178890603D5CB
:10087000E269391891420DD80744761C2078800629
:1008800002D5E069B84205DDAE42E6DB3AF8160073
:100890000028E2D1A069C01BA0612046FFF7E1FE5D
:1008A000D8E90010CDE90010002017E03AF8181040
:1008B0006A4602A800F0CAFCB0F1FF3F81460BD0A7
:1008C00000250DF1080B05E0D4E901211BF8050016
:1008D00090476D1C4D45F7D308F10100B0428046AA
:1008E000E4DB206A384420622046FFF7D0FEBDE8F2
:1008F000FF9F0000DA3000002DE9F0418046D21D54
:1009000022F007020025D2E90002F52915A614D02D
:10091000011E72F1000106DA0023D0EB030063EB45
:10092000020211A608E0D8F800108B0701D50FA627
:1009300002E0490701D50EA601251146002408F161
:10094000240704E000F098F830323A55641C50EA6D
:100950000102F7D12B46324621464046BDE8F04120
:10096000FFF7B8BE000000002D0000002B000000C3
:100970002000000030B4002100F1240408E002F05F
:100980000705D208303542EA4372DB086554491C3A
:1009900052EA0305F3D10468002310A2250708D505
:1009A00004F020040C4304D0C46901230CA2641E8B
:1009B000C46130BCFFF78EBE10B5044621461068F6
:1009C000FFF77FFE02462046BDE810400023D1E736
:1009D000D21D22F00701D1E90023CBE7000000007F
:1009E00030000000F0B40D460188090502D5214C05
:1009F0007C4402E01F4C7C440E34002100F12406AC
:100A000008E002F00F071209E75D42EA03721B09D2
:100A10007754491C52EA0307F3D1027800231207E6
:100A200004D5702D06D009B1022311342246F0BC42
:100A3000FFF750BE01231034F8E770B504460D46A9
:100A400021461068FFF73DFE024629462046BDE8D4
:100A500070400023C6E7D21D22F00703D3E900232C
:100A6000C0E70368126843F0200303600823C361F2
:100A70000023B7E73C2F000030B5B0F10A024FEA7F
:100A8000900E71F100034EEA817EB0EB0E0061EB37
:100A900091014FEA101E4EEA017E10EB0E0041EB71
:100AA00011114FEA102E4EEA016E10EB0E0041EBD1
:100AB00011214FEA104E4EEA014E10EB0E0041EBB1
:100AC0001141401841F100014FEAD00040EA417065
:100AD0004FEAD10110EB80054FEA810444EA90749B
:100AE00044EB01046D1944EB0404521BA3414FF085
:100AF000000348BF0A3200D530BD401C41F100015F
:100B000030BD70472DE9FF4F0C461E464FF0FF37B2
:100B10008BB0D2E90001DDF860800A908A46C1F30B
:100B20000A5505B93D46002108464FF00000BAF1CC
:100B3000000F00F4400005DA00EB80004FF44001A4
:100B400001EA50004FEA9059B9F1010F00DDB946B2
:100B50000A9850EA4A000ED044F61050A5F2FF352C
:100B600045432F14B8F1000F1ED07542291E1EDD1B
:100B7000C9F100021CE0B8F1010F4FF0000001D0F4
:100B8000302103E0F24305E02154401CB042FBDB7E
:100B900030460022002121540B99C1F80880C1E998
:100BA00000200FB0BDE8F08FBD1B6D1CDEE74A468C
:100BB00000DA694206A800F0DBFB06AB93E8070009
:100BC00003AB83E8070050460A9900F08DFC8DE8DE
:100BD0000700A0F500501F3800900398002D09DD94
:100BE00042F21F014A46084403A90390684600F0F8
:100BF000ECFE08E0A0F500504A461F3803A9039018
:100C0000684600F0F6FE8DE807000004000C03D0F3
:100C10004FF0FF30410800E01046B8F1000F03D05C
:100C20000022009215461EE0751E05D4FFF724FF32
:100C3000303262556D1EF9D5B3460122084302D009
:100C400000227F1C04E02078302801D100227F1E82
:100C5000002A099786D01DE0112D07DAFFF70CFF57
:100C6000303262556D1C50EA0102F5D1084302D0C2
:100C70000098C8B10EE00021681E05E0235C625CAC
:100C800063542254401E491C8142F7DBAB46A81B2B
:100C9000401E0990002004F80B000B98099AC0F838
:100CA0000880C0E9002B7CE711264FF0000859E7C7
:100CB0002DE9F04F88460446D21D22F0070191B07D
:100CC000D1E90001CDE90A0102F065F902460B986D
:100CD000C00F01D02D2007E02068810701D52B200F
:100CE00002E0202101EAC000032A099001D0072A6E
:100CF00005DB03464146204600F0FAFA0BE1207876
:100D0000800601D5E06900E00620B8F1650F814654
:100D100006D0B8F1660F18D0B8F1670F70D131E086
:100D20000020B9F1110F009001DB112301E009F15E
:100D300001030AAA01A90CA8FFF7E4FEDDE90C7083
:100D4000002609F10105834647E001204B4600904B
:100D50004FF000470AAA01A90CA8FFF7D3FEDDE96E
:100D60000DB00C995D46002610B909F101000D186F
:100D7000B9EB050003D4C0F1FF3609F10105A5EB7D
:100D800009002BE0B9F1010F01DA4FF00109002051
:100D9000B9F1110F0090484601DD112300E0034630
:100DA0000AAA01A90CA8FFF7ADFEDDE90C704D46BB
:100DB00000268346207800070AD4AB4500DA5D465A
:100DC00001A8012D04DD411911F8011C302907D0BB
:100DD0004F4502DA17F1040F04DA012082460FE0D2
:100DE0006D1EEEE7002F02DCED1B3E4403E0781C95
:100DF000A84200DD7D1CB81B00F1010A4FF000473E
:100E00002078000703D4AA4501DB4FF0FF3A002108
:100E1000B7F1004F0DF143088DF8431024D00220A4
:100E20002B23002F01DA7F422D230A21021EA0F17D
:100E3000010000DC5FB197FBF1FC97FBF1F201FBD5
:100E40001C7C17460CF1300C08F801CDEEE7A8F138
:100E5000010003702188090501D5452100E06521C5
:100E6000A0F1010800F8011C09980FA9A1EB0807DF
:100E7000FF1D00B10120411901EBEA70A16938445E
:100E8000081A401EA0612078C00602D42046FFF751
:100E9000E8FB099828B1D4E901219047206A401C59
:100EA00020622078C00622D52046FFF7DAFB1EE03C
:100EB000002E04DBB34502DD01A8805D00E0302098
:100EC000D4E901219047206A401C2062761CAAF1D7
:100ED00001005FEA000A0AD100F006FAC068016862
:100EE000405CD4E901219047206A401C2062281E02
:100EF000A5F10105DCDC07E0D4E9012118F8010BBC
:100F00009047206A401C2062381EA7F10107F3DCDD
:100F10002046FFF7BCFB032011B043E62DE9F04F5C
:100F200004460D46D21D22F0070089B0D0E9009298
:100F300048461746394602F02EF80246F80F01D00F
:100F40002D2307E02068810701D52B2302E0202113
:100F500001EAC0038DF820300BB1012000E0002031
:100F6000032A824601D0072A04DB2946204600F0E6
:100F7000BFF93DE12078800601D40D2500E0E56948
:100F8000C7F30A560D2D49DA00214FEA175B0846D0
:100F90004FF00000002F00F4400007DA00EB800063
:100FA0004FF4400100EBD07001EA60008115012987
:100FB00001DD4FF0FF3100224FEA850CBCF1180F24
:100FC00006D31346ACF118004FF08052C24003E044
:100FD0004FF4801323FA0CF30CF10C0CBCF1200F2E
:100FE00004D3ACF1200C09FA0CF001E007FA0CF084
:100FF00000294FF0004801DD18B90FE00ED140453F
:101000000CD319EB02095F4121B9404502D19F433E
:1010100029EA0209BBEB175F00D0761C2088000587
:1010200002D57B48784402E079487844193808AA08
:10103000302302F80A30037C0AF10101002E0AF184
:10104000020A53546A4602DC4FF0300101E04FF0CF
:1010500031014FF001088DF8001002D0A6F2FF36E2
:1010600003E059EA470100D06A4E002D02DC2178E6
:10107000090704D54FF002082E218DF80110C4464F
:1010800000210BE0C7F303433F01C35C491C6D1E05
:1010900002F80830052908F1010801DA002DF1DC19
:1010A00000210CE000EB1973491C1B786D1E082908
:1010B00002F808304FEA091908F1010801DA002D99
:1010C000F0DC2178890602D514E0A8F10108E0459A
:1010D00005DD02EB080111F8011C3029F5D0B8F14B
:1010E000000F07DD02EB080111F8011C2E2901D1C8
:1010F000A8F10108002D05DD3E2102F808106D1E43
:1011000008F10108407C002E02F8080008F10108EF
:1011100004DA2D20764202F8080002E02B2002F8C3
:1011200008000A214FF47A70864208F101080BDBAF
:1011300096FBF0F3303302F8083096FBF0F308F139
:10114000010800FB136601E0642E0CDB642096FBB3
:10115000F0F3303302F8083096FBF0F308F10108A1
:1011600000FB136601E00A2E06DB96FBF1F030303F
:1011700002F8080008F1010896FBF1F001FB10608D
:10118000303002F80800A16908F1010808EB0502F7
:1011900002EB0A00081AA0612078C00602D420469B
:1011A000FFF75FFA216A08AE01EB0A00206204E053
:1011B000D4E9012116F8010B9047BAF1010AF7D2E0
:1011C0002078C00602D52046FFF74BFA6E4609E0AC
:1011D00016F8010B3E280FD0D4E901219047206A70
:1011E000401C2062B8F10108F2D22046FFF74FFA06
:1011F00009B00320BDE8F08F206A2844206203E094
:10120000D4E90121302090476D1EEBD3F8E70000B0
:101210004329000002FCFFFF10B5436913B1AFF38F
:10122000008001E0FFF70AFB012010BD128800F1E9
:10123000240182840022C2840122EDE711684FF06C
:10124000FF32E9E7007B00F08000704770B516467A
:101250000C46054600F040F8036893F801010128A8
:1012600006D0FF2C0FD8185D68B101202C7070BD1E
:10127000D3F807013246214603F2071303442846F8
:10128000BDE8704018474FF0FF3070BD754600F064
:10129000E7F8AE4605006946534620F0070085464C
:1012A00018B020B5FFF736F8BDE820404FF0000633
:1012B0004FF000074FF000084FF0000B21F007013E
:1012C000AC46ACE8C009ACE8C009ACE8C009ACE881
:1012D000C0098D467047000010B500F005F8001DEC
:1012E00010BD00BFBD2500000048704760B002205F
:1012F0002DE9F0411F46044603260168072A01F440
:10130000006004DB08B116A505E016A503E008B1EE
:1013100015A500E015A521F010002060A069C01EF1
:10132000A0610FB1401EA0612046FFF79AF94FB1AE
:10133000D4E9012138469047206A401C2062C01C35
:10134000206206E0206AFAE7D4E9012115F8010BD2
:101350009047761EF8D22046FFF799F9BDE8F08154
:101360004E414E006E616E00494E4600696E660049
:101370002DE9F047814616468AB0334878440DC8B7
:101380008DE80D0030487844801C03AC0DC884E81B
:101390000D0041F69B300844372190FBF1F290FBA1
:1013A000F1F5A5F1800501FB12041B3C02D5644256
:1013B000012000E00020DFF890A080460027FA44DA
:1013C000AAF1BE0A0DE0E00709D03246684607EBF5
:1013D00047010AEB810100F00CFB8DE80700641067
:1013E0007F1C002CEFD1184F7F44AC3F18E0E8077A
:1013F00014D007EB04100DF1180A90E80E008AE8EB
:101400000E00C068F04201D198190890324606A932
:1014100003A800F0EEFA03AB83E807006D10641C2C
:10142000002DE4D132466946B8F1000F03A802D07E
:1014300000F0CBFA01E000F0DCFAC9E90001C9F8DC
:1014400008200AB0BDE8F0877C26000010B50446ED
:10145000AFF300802046BDE81040FEF746BF000015
:101460000048704740B002204FF0013C50F8042B78
:1014700051F8043B9A4221D1A2EB0C03934313EAA7
:10148000CC1317D150F8042B51F8043B9A4215D1D4
:10149000A2EB0C03934313EACC130BD150F8042BAB
:1014A00051F8043B9A4209D1A2EB0C03934313EA8F
:1014B000CC13DBD04FF00000704700BFD01A01BA48
:1014C000B1FA81F101F0180122FA01F0CB40C1F12B
:1014D0002001DBB2C0B2C01A2CFA01F3D11A914339
:1014E00011EAC311E6D170475FEA400C08BF91F0E2
:1014F000000F4FEA8C234FEAC12243EA51514FEAD1
:101500001C5018BF00F5F0404FEA300018BF41F002
:1015100000415FEA6C5C00F02980BCF1FF3F08BF2E
:1015200040F080407047130C06BF12044FF0100CBF
:101530004FF0000C130E04BF12020CF1080C130F35
:1015400004BF12010CF1040C930F04BF92000CF1C4
:10155000020CD30F04BF52000CF1010C11464FF0E6
:101560000002A0F11F00A0EB0C00704711F0004F2B
:1015700008BF704731F000413FF4D5AF0B0C06BFF8
:1015800009044FF0100C4FF0000C0B0E04BF0902C1
:101590000CF1080C0B0F04BF09010CF1040C8B0FAC
:1015A00004BF89000CF1020CCB0F04BF49000CF101
:1015B000010CCCF12003A0EB0C0022FA03F302FA99
:1015C0000CF241EA030100F10100704720F07F4C6A
:1015D00080EA030023F07F47ACEB070303F57C535D
:1015E00000F0004003F1FF032DE980494FEA154B5D
:1015F00009B44FEA144325EA0B4E24EA03480FF2DC
:10160000042606EB132749083E785FEA320203FB03
:101610000667C7F5000707FB06F64FEA54374FEA9F
:10162000D64606F1020607FB066CCCF1005C4FEAD9
:101630001C472CEA074C07FB06F40CFB06F504EBF1
:1016400015464FEA961634BF00204FF000404FEA8F
:10165000D13706FB07FC4FEA1C4C0CFB0BF7D21BE7
:1016600003FB0CF761EB07010CFB0EF7B0EB074037
:1016700072EB17420CFB08F734BFA2EB0742B2EB48
:10168000074261EB17414FEA0C444FEA910706FB12
:1016900007FC4FEA1C4C0CFB0BF7B0EBC74072EB9E
:1016A000573203FB0CF734BFA2EBC742B2EBC74281
:1016B00061EB57310CFB0EF7B0EBC70072EB5772C2
:1016C0000CFB08F734BFA2EBC702B2EBC70261EB19
:1016D0005771039F4FEA816141EA921104EBCC04F8
:1016E0004FEAD1374FEA826206FB07FC42EA9012CA
:1016F0004FEA80604FEA1C4C0CFB0BF7D21B03FB3C
:101700000CF761EB07010CFB0EF7B0EB074072EB37
:1017100017420CFB08F734BFA2EB0742B2EB0742BB
:1017200061EB17414FEA8C554FEA910704EB9C247B
:1017300006FB07FC4FEA1C4C0CFB0BF7B0EBC74059
:1017400072EB573203FB0CF734BFA2EBC742B2EB8C
:10175000C74261EB57310CFB0EF7B0EBC70072EBE1
:1017600057720CFB08F734BFA2EBC702B2EBC702FB
:1017700061EB577115EB4C254FEA816141EA9211FB
:101780004FEA82624FEAD13742EA901206FB07FC29
:1017900044F100044FEA80604FEA1C4C0CFB0BF74D
:1017A000D21B03FB0CF761EB07010CFB0EF7B0EB50
:1017B000074072EB17420CFB08F734BFA2EB07425D
:1017C000B2EB074261EB174115EB1C154FEA813173
:1017D00041EA92414FEA823242EA90424FEA803037
:1017E0004FEA0C7644F1000448EA03434EEA0B4802
:1017F0004FF0000EB2EB080C71EB030724BF6246FA
:1018000039464EEB0E0E4FF0000B00185241494185
:101810004BEB0B0BB2EB080C71EB03077BF1000BEE
:1018200024BF624639464EEB0E0E4FF0000B0018F7
:10183000524149414BEB0B0BB2EB080C71EB030728
:101840007BF1000B24BF624639464EEB0E0E51EA87
:10185000020718BF46F0010616EB0E7655F100029E
:1018600054F1000103D5BDE88901BDE80088BDE859
:101870008901BDE80048B619524141EB0101A3F1CD
:101880000103704780807F7E7D7C7B7A79787776D4
:1018900076757473727171706F6E6E6D6C6C6B6A4D
:1018A0006A696868676666656464636362616160EB
:1018B000605F5F5E5E5D5D5C5C5B5B5A5A59595868
:1018C00058575756565555555454535352525251D2
:1018D000515050504F4F4F4E4E4D4D4D4C4C4C4B28
:1018E0004B4B4A4A4A49494948484847474747466F
:1018F00046464545454444444443434343424242AB
:1019000042414141002B26D4770021D01CB54FEA3B
:10191000370703B44FF010004FF010014FF00000F4
:101920000FBCBDE810400BF1010BBBF1010F08BF6C
:101930005FEA170722BF12F1010211F101014FF016
:10194000004143F1000300F0004043EA000070470B
:10195000F9D35708DAE746EA064613F1400F4FEA93
:1019600016461FDD13F1200FDFBF16430A46002184
:1019700020335B42C8D0C3F1200746EA064602FA8C
:1019800007F74FEA164646EA0706C3F1200722FA90
:1019900003F201FA07F721FA03F14FF0000342EADC
:1019A0000702B1E746EA020646EA06464FEA16464D
:1019B00046EA0106BCBF46EA0646360C4FF0000375
:1019C0004FF000024FF000019EE72DE9C04893461A
:1019D00030B491E8380007C831EA400C48BF34EA17
:1019E000430C03D5FFF7F2FDFFF78CFFF0BCBDE819
:1019F00000882DE9C048934630B491E8380007C804
:101A000010F0804F08BF13F0804F03D100F005F8AD
:101A1000FFF778FFF0BCBDE8008820F07F4780EA40
:101A2000030023F07F4C07EB0C03A3F57C5300F07D
:101A30000040A3F1FE0392F0000F00F0B38095F098
:101A4000000F00F077802DE901494FEA11404FEA7D
:101A5000144621EA004800FB06FC24EA064708FB7E
:101A600006F607FB08F800FB07F718EB06484CEBF7
:101A7000164C4FEA124B18EB07484FEA15464CEB51
:101A8000174022EA0B4E0BFB06FC25EA06470EFB2D
:101A900006F607FB0EFE0BFB07F71EEB064E4CEBA4
:101AA000164C4FF000061EEB074E4CEB174B18EB95
:101AB0000B0840F1000018EB0E0B58EB000840F14A
:101AC00000008F1A4FF000013CBFC943661B14BFD2
:101AD000B5EB040C00213CBFC943F61B4FEA174489
:101AE0004EEA8E0E27EA04454FEA1C4704FB0762C4
:101AF0002CEA074C05FB07F70CFB05F604FB0CFC76
:101B000016EB074642EB174216EB0C4642EB1C4223
:101B10001BEB060658EB0202414146EA9E0601D540
:101B2000BDE80189B619524141EB0101A3F101035E
:101B3000BDE801894FEA14454FEA114724EA0546FA
:101B400021EA074C05FB07F406FB07F70CFB06F13F
:101B500005FB0CFC11EB074144EB17444FEA12471D
:101B600011EB0C4144EB1C4422EA074C05FB07F245
:101B700006FB07F70CFB06F605FB0CFC16EB07460D
:101B800042EB174216EB0C4642EB1C456A1854F127
:101B9000000148BF7047B619524141EB0101A3F162
:101BA0000103704795F0000F37D04FEA11424FEA1A
:101BB000144721EA024624EA074C02FB07F106FB20
:101BC00007F70CFB06F402FB0CFC14EB074441EB9B
:101BD00017414FEA154714EB0C4441EB1C4125EA31
:101BE000074C02FB07F506FB07F70CFB06F602FBAA
:101BF0000CFC16EB074645EB174516EB0C4645EB80
:101C00001C42121951F1000148BF7047B6195241E8
:101C100041EB0101A3F1010370474FEA14454FEA7C
:101C2000114724EA054621EA074C05FB07F106FBAC
:101C300007F70CFB06F24FF0000605FB0CFC12EB5D
:101C4000074241EB174112EB0C4251EB1C4148BFDC
:101C50007047921841EB0101A3F101037047FEE7C1
:101C6000704700002DE9F84FDFF8A091002209F13C
:101C7000040A0AF1040B4FF00F080BF1040E0126C1
:101C80000B6896403340B34271D14C68022C01D0AE
:101C9000122C11D1D40800EB84073D6A5407E40EDE
:101CA00008FA04FC25EA0C05D1F810C00CFA04FC73
:101CB0004CEA050CC7F820C007685400032591F8CA
:101CC00004C0A5400CF0030CAF430CFA04FC4CEA32
:101CD000070CC0F800C04F68012F05D0022F03D0B9
:101CE000112F01D0122F11D18768D1F80CC0AF434A
:101CF0000CFA04FC4CEA070CC0F808C04768B7436C
:101D00000E79C6F3001696403E434660C668AE4361
:101D10008D68A5403543C5604C68E4006FD53C4CE8
:101D2000256845F480452560246822F0030504F405
:101D300080440094374C2E19D6F808789407250F64
:101D400008FA05F4A743344CA04201D100242EE048
:101D5000324CA04201D1012429E0314CA04201D1F2
:101D6000022424E02F4CA04202D103241FE046E0CD
:101D70002D4CA04201D1042419E02C4CA04201D1E9
:101D8000052414E02A4CA04201D106240FE0294C7E
:101D9000A04201D107240AE0274CA04201D1082427
:101DA00005E0264CA04201D1092400E00A24AC4001
:101DB0003C43C6F80848D9F800404D464E689C435D
:101DC000F60300D51C432C60DAF8004055464E68F7
:101DD0009C43B60300D51C432C60DBF800405D46F5
:101DE0004E689C43F60200D51C432C60DEF8004090
:101DF00075464E689C43B60200D51C432C60521CAD
:101E0000102AFFF43CAFBDE8F88F0000003C014011
:101E1000443802400030014000000240000402400B
:101E200000080240000C0240001002400014024072
:101E300000180240001C0240002002400024024022
:101E40000148006870470000140000200248016843
:101E5000491C016070470000140000200B4810B5B9
:101E6000016841F400710160016841F48061016022
:101E7000016841F480710160052000F049F80F20ED
:101E800000F006F800F015F8002010BD003C0240FC
:101E900010B5044600F052F94FF47A71B0FBF1F03E
:101EA00000F066FB00222146501E00F011F80020D1
:101EB00010BD08B50020009008BD00F01F020121F0
:101EC00091404009800000F1E020C0F80011704707
:101ED000F0B40E4B1B68C3F30223C3F10704042CB8
:101EE00000D904241D1D072D01D2002300E0DB1EB4
:101EF000012606FA04F56D1E0D409D409E40761E9B
:101F0000164045EA0601F0BC00F038BD0CED00E0DB
:101F1000064A00F0070110684FF6FF03184040EA38
:101F20000120034908431060704700000CED00E0F9
:101F30000000FA052DE9F05FDFF8F8A104460F462E
:101F4000DAF80000DFF8F08100F00F02C8B27A4939
:101F5000814641F2883608F10808BA4261D2024649
:101F60008AF80020DAF8000000F00F00B8427DD1B6
:101F70002078800707D5D8F80020A36822F0F00267
:101F80001A43C8F800202078C0072DD060680128C7
:101F90001AD002281BD0032819D009688907002904
:101FA00064DAD8F80010474621F003010143C8F86D
:101FB0000010FFF745FF0546606801280FD0022892
:101FC00018D003281CD027E009688903E7E70968CF
:101FD0008901E4E7FFF734FF401BB04258D8386866
:101FE000C0F381000128F5D188E0FFF729FF401BED
:101FF000B0424DD83868C0F381000228F5D17DE0A9
:102000003868FFF71DFF401BB042F9D940E0FFF7E9
:1020100017FF401BB0423BD8386810F00C0FF6D1C8
:102020006CE02078800707D5D8F80020A36822F05C
:10203000F0021A43C8F800202078C0074CD060682E
:10204000012828D0022829D0032827D00968890729
:10205000002949DAD8F8002022F003020243C8F828
:102060000020FFF7EDFE0546606800E03CE0012837
:102070001DD0022829D0032838D0B3464646306800
:1020800010F00C0F28D0FFF7DBFE411B5945F6D9A5
:102090000320BDE8F09F09688903D9E70968890131
:1020A000D6E7FFF7CDFE411B594502D9F0E7B3460D
:1020B00046463068C0F381000128F2D10CE0FFF7FA
:1020C000BFFE411B594502D9E2E7B3464646306898
:1020D000C0F381000228F2D18AF80090DAF80000FB
:1020E00000F00F00B84209D00120D2E74446206832
:1020F000FFF7A6FE401BB042F9D9C9E72078400798
:1021000007D5D8F80010E26821F4E0511143C8F86F
:1021100000102078000708D5D8F80010226921F4B3
:10212000604141EAC201C8F800100F20FFF7B0FE7D
:102130000020AEE7003C02400038024010B500F03D
:1021400043F808490968F02292FAA2F201F0F0017E
:10215000B2FA82F2D140044A515CC8400349086097
:1021600010BD000008380240DE38000800000020E2
:1021700010B5FFF7E3FF074909684FF4E05292FA00
:10218000A2F201F4E051B2FA82F2D140024A515C6B
:10219000C84010BD08380240DE38000810B5FFF70F
:1021A000CDFF074909684FF4604292FAA2F201F4A8
:1021B0006041B2FA82F2D140024A515CC84010BD7F
:1021C00008380240DE38000830B51948006810F0C1
:1021D0000C01184812D0184C04290ED008290DD132
:1021E000134A121F1168136801F03F015D0247F6A0
:1021F000C07304D5B4FBF1F003E0204630BDB0FB62
:10220000F1F01168194093FAA3F3B3FA83F3D940BC
:10221000484311684FF4403292FAA2F201F440317F
:10222000B2FA82F2D140491C4900B0FBF1F030BD56
:10223000083802400024F40040787D012DE9F84F71
:1022400004460078DFF8FCA2BF4DC0074FF000063F
:1022500048D0DAF800105046C1F38101012908D0B6
:102260000068C0F3810002280AD1281D00684002DE
:1022700006D52868800335D56068002873D031E022
:10228000DFF8C49209F1020989F80060FFF7D8FD70
:10229000074641F2883804E0FFF7D2FDC11B4145F3
:1022A0007AD828688003F7D4207989F8000060681C
:1022B00060B1FFF7C5FD074604E0FFF7C1FDC11B94
:1022C0004145EDD828688003F7D50BE0FFF7B8FD4E
:1022D000074604E0FFF7B4FDC11B4145E0D828687C
:1022E0008003F7D42078DFF86492800744D5DAF8C9
:1022F0000010504611F00C0F4FF0F80809D000689C
:10230000C0F3810002280BD18E48001F00684002F4
:1023100006D42868800714D5E068012823D110E08E
:10232000E068D0B10120C9F80000FFF789FD074639
:1023300004E0FFF785FDC01B6428B1D8286880073A
:10234000F7D5286898FAA8F22169B2FA82F220F04B
:10235000F8009140084328600EE0C9F80060FFF7DC
:102360006FFD074605E0EAE0FFF76AFDC01B642841
:1023700012D828688007F7D42078000725D5DFF821
:10238000C4817348616908F16C0881B10121016061
:10239000FFF756FD074605E07EE0FFF751FDC01B45
:1023A000642879D8D8F800008007F6D50DE00660DB
:1023B000FFF746FD074604E0FFF742FDC01B642817
:1023C0006AD8D8F800008007F6D42078400753D5A3
:1023D0005C483830016841F0805101600068DFF8E6
:1023E000748100F080500090D8F8001041F48071A2
:1023F000C8F80010FFF724FD074604E0FFF720FDB2
:10240000C01B642848D8D8F80000C005F6D5DFF80E
:1024100034B10BF1680B8BF80060FFF711FD074634
:1024200041F2883804E0FFF70BFDC11B41457ED81F
:10243000DBF800008007F6D4207A8BF80000A06853
:1024400068B1FFF7FDFC074604E0FFF7F9FCC11B8C
:1024500041456CD8DBF800008007F6D50CE0FFF7AB
:10246000EFFC074604E0FFF7EBFCC11B41455ED8DB
:10247000DBF800008007F6D4A069E8B3DAF80010B2
:10248000C1F3810102295AD0022806D0C9F8606040
:10249000FFF7D6FC04464DE049E04F46C9F86060BE
:1024A000FFF7CEFC064604E0FFF7CAFC801B642859
:1024B0003DD828688001F7D4D4E90701084347F6DE
:1024C000C07191FAA1F1626AB1FA81F18A40A16A00
:1024D0004FF0FF3303EB51014FF4403393FAA3F372
:1024E000B3FA83F399400A4310434FF0706292FAB3
:1024F000A2F2B2FA82F200E01FE0E16A91400843E2
:102500001049091F086001203866FFF799FC04464E
:1025100004E0FFF795FC001B642808D828688001B8
:10252000F7D50AE0FFF78CFC001B642802D90320D2
:10253000BDE8F88F28688001F4D40020F8E7012076
:10254000F6E7000008380240003802400000474229
:10255000800E4742007000404FF0E02104280869D7
:1025600003D020F004000861704740F00400FAE74F
:1025700010B5401EB0F1807F01D3012010BD4FF097
:10258000E02460610F21601700F0F8F90020A061DD
:1025900007202061002010BD10B5040003D094F87E
:1025A000390010B107E0012010BD002084F8380088
:1025B000204600F00DF8022084F83900211D206823
:1025C00000F098FA012084F83900002010BD0000C6
:1025D00008B500680B49884212D10B48016841F0E8
:1025E000200101600068012200F02000009000211D
:1025F0003720FFF76DFCBDE808403720FFF75DBCD2
:1026000008BD000000140040403802400168CA685C
:1026100042F00102CA600068016841F001010160F6
:1026200000207047704738B5016804460868CA68DA
:10263000C0F3000002F4807238B132B10868486813
:102640000090E06B40F00100E06308684A69C0F365
:10265000400002F0010238B132B1086848680090C9
:10266000E06B40F00400E06308684A69C0F3800052
:1026700002F0010238B132B1086848680090E06B9E
:1026800040F00200E06308684A69C0F3C00002F04D
:10269000010238B132B1086848680090E06B40F040
:1026A0000800E0630868C968C0F3401001F0200129
:1026B00018B111B1204600F07DFA20680168C068A9
:1026C000C1F3C01100F0800019B110B1204600F034
:1026D0007FFB21680868CA68C0F3801002F04002DE
:1026E000012568B162B1CA68204622F04002CA6082
:1026F00094F8391032290CD080F8395000F03AF9AA
:10270000E06B002804D084F839502046FFF78AFF98
:1027100038BD222180F83910F0E770B5040004D0EC
:1027200094F83900002510B106E0012070BD84F84E
:102730003850204600F020F8022084F83900206844
:10274000C16821F40051C160204600F087FA20687A
:10275000016921F4904101612068416921F02A0159
:1027600041612068C16841F40051C160E563012006
:1027700084F83900002070BD2DE9F04F044644482C
:10278000444D0226012787B04FF0000B4FF0070899
:102790004FF48069844234D1286840F001002860F9
:1027A000286800F0010005903A481430016841F0B3
:1027B000100101600068DFF8E0A000F01000059053
:1027C00068158DE8C100CDE9036869465046FFF7FA
:1027D00049FA69465046CDF80090FFF743FA206861
:1027E000C16821F04001C1602068C16841F020014A
:1027F000C1602520FFF761FB032211462520FFF76A
:1028000067FB2348403084423ED12868DA4640F0D6
:1028100002002860286800F0020005901D48103072
:10282000016841F4802101600068CDF80090CDE995
:10283000016700F48020CDE90480184D69460396B5
:102840002846FFF70FFAE814009069462846FFF77C
:1028500009FA2068C16841F02001C1602720FFF714
:102860002CFB032202212720FFF732FB41F28731A4
:1028700040F2E73000F028F909490A48A1F802A01F
:10288000016821F00101016007B0BDE8F08F000090
:10289000700700203038024000000240000402406F
:1028A0001C000020001400402DE9F047044690F879
:1028B000390099460D46012801D0122857D125B379
:1028C0001AB394F83800012851D0012684F83860F2
:1028D0000027E76394F83900122819D0222084F8E1
:1028E0003900A285E2854FF48058E08D4B46401EAA
:1028F000E085A0684FF0000240454FF020012046DF
:1029000016D100F098FAB0B904E00120BDE8F087D4
:102910003220E4E7206900282068406803D0C1B273
:1029200025F8011B12E0C0F3080125F8021B0DE099
:1029300000F081FA08B10320E8E720690028206848
:10294000406801D000F07F0005F8010BE08D002801
:10295000CBD194F83900322805D084F8396084F856
:1029600038700020D2E7122084F83900F7E70220FF
:10297000CCE770477047FEE7FEE770470907090E8E
:10298000002806DA00F00F0000F1E02080F8141DA6
:10299000704700F1E02080F80014704770477047DE
:1029A000FFF754BA30B5264893B00025016841F0CE
:1029B00080510160006800F080501190214801684A
:1029C00021F4404141F4804101600068022400F498
:1029D0004040119001200390102004900094069430
:1029E0000820CDE907506420CDE9090404200B90AC
:1029F0006846FFF723FC00B1FEE70CA90F2081E831
:102A000031004FF4A0500F904FF4805010900321EC
:102A10000CA8FFF78FFA00B1FEE7FFF78FFB4FF42A
:102A20007A71B0FBF1F0FFF7A3FD0420FFF794FDEE
:102A300000221146501EFFF74BFA13B030BD0000C4
:102A400040380240007000401048016841F47001B5
:102A500001600F48016841F0010101600C4A00214A
:102A60000832116002680B4B1A400260031D0A4ACB
:102A70001A60026822F48022026005480C3001606E
:102A800002495806803908607047000088ED00E070
:102A900000380240FFFFF6FE10300024074801888E
:102AA00041F40041018006496FF0010009680861A6
:102AB0000448016821F00101016070471E000020F8
:102AC000F007002000140040094A10B5074BC2E986
:102AD00000310021C2E9021010461161FFF75CFDD0
:102AE000BDE810400248FFF791BD0000001400400F
:102AF000F0070020F0B50268234D244E244FDFF884
:102B000094C0254B4FF0804EA84209D0704507D0A5
:102B1000B04205D0B84203D0604501D0984203D1FD
:102B200022F070044A682243A8421BD0704519D095
:102B3000B04217D0B84215D0604513D0984211D09A
:102B4000164CA0420ED0164CA0420BD0154CA04201
:102B500008D0154CA04205D0144CA04202D0144C11
:102B6000A04203D122F44074CA68224302608A68FA
:102B7000C2620A688262A84201D0984201D1096902
:102B8000016301214161F0BD0000014000040040EB
:102B900000080040000C00400004014000400140DB
:102BA000004401400048014000180040001C004063
:102BB0000020004010B590F83910222903D03229A6
:102BC00001D0022010BD8168B1F5805F11D001698C
:102BD000002901681FD0496801F07F03816A4A1CFF
:102BE00082620B70C18D491E0904090CC18518D081
:102BF0002FE00269816A002A0268526805D0D2B2C9
:102C00000A80816A491C8162ECE7C2F308020A80EB
:102C1000816A891CF7E74A68816A4B1C83620A70E3
:102C2000E0E70168CA6822F02002CA6090F8391013
:102C3000322910D00168CA6822F48072CA60016823
:102C40004A6922F001024A61012180F83910FFF738
:102C500090FE002010BD1221F7E700002DE9F041A1
:102C6000044600680169E26821F440510A430261A8
:102C70002068C16849F20C6291432369A268E56942
:102C80001A4363692B431A430A43C26020684169AF
:102C900021F44072A16911434161E0696426322543
:102CA000B0F5004F484A494920681DD0884201D0FC
:102CB000904269D1FFF772FA00EBC00101EB0010FE
:102CC0006168B0468900B0FBF1F1B1FBF8F6FFF79F
:102CD00065FA00EBC00101EB001061688900B0FBF0
:102CE000F1F7FFF75BFA68E0884201D0904219D112
:102CF000FFF754FA00EBC00101EB00106168B04629
:102D00004900B0FBF1F1B1FBF8F6FFF747FA00EB31
:102D1000C00101EB001061684900B0FBF1F7FFF75B
:102D20003DFA18E0FFF724FA00EBC00101EB0010B8
:102D30006168B0464900B0FBF1F1B1FBF8F6FFF76E
:102D400017FA00EBC00101EB001061684900B0FB0D
:102D5000F1F7FFF70DFA00EBC00101EB001061681D
:102D60004900B0FBF1F1B1FBF8F06FF018014843F6
:102D700007EB800005EB0011B1FBF8F0216866F36A
:102D80001F108860BDE8F081FFF7F2F900EBC00189
:102D900001EB00106168B0468900B0FBF1F1B1FBB6
:102DA000F8F6FFF7E5F900EBC00101EB00106168F0
:102DB0008900B0FBF1F7FFF7DBF900EBC00101EB95
:102DC000001061688900CCE7001401400010014048
:102DD00090F83910122903D0322901D0022070470F
:102DE0008168B1F5805F016A0BD04A1C02620268FB
:102DF00009785160C18C491E0904090CC1840ED0A8
:102E000017E009880268C1F30801516001690029CF
:102E1000016A02D0491C0162ECE7891CFBE70168EA
:102E2000CA6822F08002CA600068C16841F04001AF
:102E3000C160002070472DE9F0471D4690460F46BF
:102E40000446FEF7FDFF06465FEA08004FF0000962
:102E50004FF0010808D030E0681C05D095B1FEF7AE
:102E6000EFFF801BA8420DD82068006837EA0000F9
:102E7000F2D127E0681C20D025B1FEF7E1FF801BCE
:102E8000A8421AD92068C16821F08001C160206879
:102E9000C16821F02001C1602068C16821F48071FF
:102EA000C1602068416921F00101416184F83980E5
:102EB00084F838900320BDE8F0872068006837EA7E
:102EC0000000D7D00020F6E738B518480068006841
:102ED000C043800621D44FF47A7301226946134817
:102EE000FFF7E2FC124A1088010416D441049DF851
:102EF00000104FF0000304D50A290DD140F4004022
:102F000011E00D290DD0C0F30D040A4D401C80B214
:102F100029551080C72800D913800448FFF783FB88
:102F200038BD40F480401080F7E7000070070020B3
:102F30001C00002068000020114810B500680068DF
:102F4000C043800617D40F4800680F4AC1B25088AA
:102F5000030410D4B0F5487F0ED20C4C002323603C
:102F600028B90A4B243B1C6844F001041C60084B40
:102F70001954401C508010BD40F40040FAE7000096
:102F8000B0070020044800401C000020241400402A
:102F900050040020FEE703B401984100009850EA75
:102FA000C12018BF04204A0D18BF40F0010040F2B4
:102FB000FF72B2EB515F08BF40F00200012808BF6A
:102FC000052002B0704730380A2801D2012070472E
:102FD000002070477047000070B5084C05462188F6
:102FE00008040AD5C1F30E00054900260E5405A0B9
:102FF000FDF7B6F9002D00D0268070BD1E00002020
:103000005004002025730000064A01460020128863
:10301000130406D5044BC2F30E0298541846FDF76C
:10302000EBBA70471E0000205004002010B500F0DD
:10303000C7F908B1002010BD322204A104A000F09D
:10304000E7F907A0FFF7E0FF007810BD3A000000A5
:1030500041542B43495053544154555300000000F0
:103060002B4349505354415455533A0070B50646CA
:1030700032220CA10CA000F0CBF9002508B135706C
:1030800070BD0CA0FFF7C0FF04460AA1401CFDF76D
:10309000B3FA0570621C3046BDE8704006A1FDF72A
:1030A0006BB900004F4B000041542B43494653522B
:1030B0000000000022000000257300007FB52021E1
:1030C000002000F07DFB06464CA0FDF749F94FF4C7
:1030D00048740FE000F074F9C8224EA14EA000F031
:1030E00097F951A0FDF73CF9204600F02BFA54A0C7
:1030F000FDF736F9142247A157A000F089F90028FE
:10310000E8D156A0FDF72CF9142242A159A000F0F5
:103110007FF90028F8D10A2000F014FA0120FFF707
:103120005BFF56A0FDF71CF932223AA15DA000F02A
:103130006FF9142237A15EA000F06AF94FF47A7497
:10314000204600F0FFF9204600F0FCF9204600F090
:10315000F9F9594C59A13046D4E90223FDF70CF98D
:103160004FF4967502E05AA0FDF7FAF82A4664A1DA
:10317000304600F04DF9A1680028F4D163A0FDF7B6
:10318000EFF840F28A25284600F0DCF9284600F0E6
:10319000D9F914221FA163A000F03AF9D4E9002361
:1031A00063A13046FDF7E8F802E068A0FDF7D8F823
:1031B000C82218A1304600F02BF90028F5D16CA0E8
:1031C000FDF7CEF8C82213A16DA000F021F96846E2
:1031D000FFF74CFF6A466EA130466368FDF7CCF8F6
:1031E000314670A0FDF7BCF83348103041686FA03D
:1031F000FDF7B6F87149002008807FBD41544B2D82
:10320000455350383236362057494649C4A3BFE9A2
:103210000D0A00004F4B000041542B4349504D4FC5
:1032200044453D3000000000CEB4BCECB2E2B5BD78
:1032300077696669C4A3BFE92121210D0A00000056
:10324000B3A2CAD4C1ACBDD377696669C4A3BFE9D0
:103250002E2E2E0D0A00000041540000B3C9B9A65D
:10326000BCECB2E2B5BD77696669C4A3BFE92E2E96
:103270002E0D0A004154453000000000D5FDD4DA7F
:10328000C5E4D6C341544B2D45535038323636C46D
:10329000A3BFE9A3ACC7EBC9D4B5C82E2E2E0D0A27
:1032A0000000000041542B43574D4F44453D310031
:1032B00041542B52535400004800002041542B43EA
:1032C000574A41503D222573222C222573220000AB
:1032D000B3A2CAD4C1ACBDD3C4BFB1EA7769666931
:1032E000A3BA2573A3ACC7EBC8B7C8CFB8C3776977
:1032F0006669D2D1BFAAC6F42E2E2E0D0A00000098
:103300005749464920474F5420495000B3C9B9A6F0
:10331000C1ACBDD3C4BFB1EA77696669A3BA2573EE
:103320000D0A000041542B4349504D55583D300083
:1033300041542B43495053544152543D225443501D
:10334000222C222573222C2573000000544350C1E7
:10335000ACBDD3CAA7B0DCA3ACC7EBC8B7C8CFB766
:10336000FECEF1C6F7CAC7B7F1B4F2BFAA0D0A0084
:10337000544350C1ACBDD3B3C9B9A60D0A00000077
:1033800041542B4349504D4F44453D31000000000E
:103390004950B5D8D6B73A257320B6CBBFDA3A250F
:1033A0007300000025730D0A00000000B9A4D7F7D0
:1033B000C4A3CABDA3BA25730D0A00001E000020D5
:1033C00070B5104C20684006FCD50E4E2B25361DDE
:1033D00035600F2000F0B6F820684006FCD5356057
:1033E0000F2000F0AFF820684006FCD535604FF4A0
:1033F000FA7000F0A7F8BDE87040142202A103A003
:1034000000F006B8004800404F4B00004154000057
:103410002DE9F041134E88460025014614462F46FB
:10342000358011A000F0E2F9B8F1000F17D08CB987
:1034300015E00A2000F086F8308800040AD54046DE
:10344000FFF7E2FD28B1414609A0FCF789FF2CB146
:1034500005E03780641E2404240CEAD101252846A7
:10346000BDE8F0811E00002025730D0A0000000059
:1034700061636B3A25730D0A0000000070B50646C3
:1034800000242021204600F09BF90546FFF7CEFDE1
:10349000641CE4B2022CF9D32B280CD012A0FCF748
:1034A0005FFF00240120FFF797FD2946002000F070
:1034B0007BF9204670BD0FA0FCF752FFFFF780FF9D
:1034C00014220FA10FA0FFF7A3FF324610A1284638
:1034D000FCF752FF294610A000F088F929460FA0FA
:1034E000FCF73EFF0124DDE7C1ACBDD3CAA7B0DCC9
:1034F00020000000C1ACBDD3B3C9B9A620000000B4
:103500004F4B000041542B43495053454E4400005B
:1035100025730D0A0000000025730000D2D1B7A268
:10352000CBCDA3BA25730D0A0000000010B50446E8
:103530000020FFF711F80249E008086010BD000004
:1035400018000020F0B54FF47A714F1000FB01F520
:10355000B5FBF7F6002403E0384600F00BF8641CD6
:10356000B442F9D3B5FBF7F007FB1050BDE8F040CB
:10357000AFF3008070B54FF0E02500216C69094A77
:10358000AB6912685043AA699A42FCD002D2A3EBFD
:10359000020302E0A4EB02063344194413468142BD
:1035A000F1D370BD1800002003490A685206FCD50B
:1035B000C2B24A60704700000010014000241BA600
:1035C000FEF74CFCFFF7EEF96420FFF7AFFF4FF476
:1035D000E135284600F02AF9284600F039F90020A4
:1035E00000F06AF8022000F067F8FFF767FD32216B
:1035F000002000F0E5F805464FF47A772346641C76
:10360000A4B232460DA12846FCF7B6FE2846FFF7C5
:1036100035FF30B9641EA4B20AA0FCF7A1FEFFF783
:103620004DFD3846FFF78EFFE8E70000463432399B
:1036300020776966692074657374000025732564BA
:1036400000000000C1ACBDD3B3F6B4EDA3ACD5FD12
:10365000D4DAD6D8D0C2C1ACBDD32E2E2E000000F5
:1036600070B5134A131893F8203093B1114B53F8E7
:1036700020308B421AD90F4B02EB80020C3B53F8DF
:1036800020305069B1FBF3F150F82140002003468F
:1036900008E011688847012070BD55690E18401C6C
:1036A00045F82630A042F8DB002070BD022070BD36
:1036B000240000200839000830B504460748084DAA
:1036C000002150F82400820005EB8400406900F0DE
:1036D00087F80120291981F8200030BDF038000852
:1036E000240000202DE9F0411E4E054600247019EB
:1036F0000F4690F8200010B93168284688474FF0EF
:10370000FF326FB3184B53F82510B7FBF1F0B7FB3E
:10371000F1FC01FB1C7101B1401C13490C3951F83B
:103720002510491E1CD406EB8506776957F821C081
:10373000BCF1000F04D0002484420FD1002206E027
:10374000641CF9E774698F18521C44F82700824200
:10375000F8D353F825004843BDE8F081491EE5D56C
:103760001046F9E724000020FC38000810B50C4B87
:103770000C4C002253F82030114604EB800005E089
:10378000446954F8214004B1521C491C8B42F7D8BB
:103790004FF47A704243B2FBF3F080B210BD0000E8
:1037A000F038000824000020002906D0034A02EB6C
:1037B00080029268891AFFF753BF704724000020E7
:1037C00010B50446FFF78EFF411C05D0034901EBFD
:1037D00084018968084410BD002010BD2400002029
:1037E00001E000F8011B521EFBD270470FB40D48D8
:1037F00070B505AA0499FCF7A1FD0A48FCF70EFF75
:1038000084B209490020074B0D1D06E00A685206E4
:10381000FCD51A5C2A60401C80B2A042F6D370BC72
:103820005DF814FB30010020004800400749064ABB
:10383000C1E9002000208860C860086188610C2010
:1038400048610846FEF769BF00100140700700207C
:103850000749064AC1E9002000208860C860086165
:1038600088610C2048610846FEF757BF00480040B9
:10387000B007002010B500290AD00878002807D02A
:1038800005487844FDF7F0FD002801D0002010BD68
:103890000248784410BD000002020000FA01000056
:1038A00010B500290AD00878002807D005487844C8
:1038B000FDF7DAFD002801D0002010BD0248784451
:1038C00010BD0000F2010000EA0100004FF040705E
:1038D000E1EE100A7047FDF7EBB9FDF71FBB0000E2
:1038E00000000102030401020304060708090000A6
:1038F000000A0000000F0700C003000040000000A5
:1039000040000000400000000080020000C0C30131
:1039100000F00000040000080000000000000002A9
:103920000001000010000000000000000000000086
:1039300030313233343536373839414243444546E5
:1039400040305800303132333435363738396162DF
:103950006364656640307800303132333435363751
:1039600038396162636465667870003031323334AF
:1039700035363738394142434445465850000000F7
:1039800002400000000000A0000000000540000010
:10399000000000C8000000000C4000000000409C37
:1039A00000000000194000000020BCBE0000000024
:1039B00034400000BFC91B8E00000004B540000069
:1039C000504BCFD06607E2CF010000006C410000F1
:1039D0003E8251AADFEEA73401000000D942000068
:1039E000DCB5A0E23A301F97FFFFFFFFB4450000AF
:1039F000FD25A0C8E9A3C14FFFFFFFFFFF3F000067
:103A00000000008000000000FF3F00000000008078
:103A1000000000003139322E3136382E3139312E46
:103A200031000000383038360000000031343732C1
:103A3000353833363900000047726F776C0000006C
:103A40002055445020C4A3CABD000000544350BFB9
:103A5000CDBBA7B6CB000000544350B7FECEF1C695
:103A6000F7000000B03B00080000002064000000E8
:103A7000E8010008143C0008640000203CB6020085
:103A8000040200081C00000043000000F8FFFFFFD4
:103A90000C0000000E0000000F0000002E000000CF
:103AA0001001000043000000F8FFFFFF004040400D
:103AB0004040404040404141414141404040404001
:103AC00040404040404040404040404040050202AD
:103AD000020202020202020202020202022020206C
:103AE00020202020202020020202020202029090C8
:103AF00090909090101010101010101010101010C6
:103B00001010101010101010020202020202888819
:103B10008888888808080808080808080808080825
:103B2000080808080808080802020202400000000D
:103B30000000000000000000000000000000000085
:103B40000000000000000000000000000000000075
:103B50000000000000000000000000000000000065
:103B60000000000000000000000000000000000055
:103B70000000000000000000000000000000000045
:103B80000000000000000000000000000000000035
:103B90000000000000000000000000000000000025
:103BA0000000000000000000000000000000000015
:103BB0000024F400000000000000000001020304E3
:103BC00006070809000000000000000000000000D7
:103BD00000000000B93600086D37000840080020DA
:103BE00000401FC000000010408802200000E3C118
:103BF00000F0001000000000143A0008243A000809
:103C0000383A00082C3A0008583A00084C3A0008A4
:043C1000403A00082E
:04000005080001AD41
:00000001FF
