:020000040800F2
:1000000008C70220BD020008215E0008B72B0008C7
:100010001F5E00080509000891700008000000003C
:1000200000000000000000000000000093690008CC
:100030000709000800000000435E0008716B00081B
:10004000D7020008D7020008D7020008D70200082C
:10005000D7020008D7020008D7020008D70200081C
:10006000D7020008D7020008D7020008D70200080C
:10007000D7020008D7020008D7020008D7020008FC
:10008000D7020008D7020008D7020008D7020008EC
:10009000D7020008D7020008D7020008D7020008DC
:1000A000D7020008D7020008D7020008D7020008CC
:1000B000D7020008D7020008C96B0008D702000861
:1000C000D7020008D7020008D7020008D7020008AC
:1000D000D702000825700008D7020008D7020008E0
:1000E000D7020008D7020008D7020008D70200088C
:1000F000D7020008D7020008D7020008D70200087C
:10010000D7020008D7020008D7020008D70200086B
:10011000D7020008D7020008D7020008D70200085B
:10012000D7020008D7020008D7020008D70200084B
:10013000D7020008D7020008D7020008D70200083B
:10014000D7020008D7020008D7020008D70200082B
:10015000D7020008D7020008D7020008D70200081B
:10016000D7020008D7020008D7020008D70200080B
:10017000D7020008D7020008D702000800000000DC
:10018000D7020008D7020008D7020008D7020008EB
:10019000D7020008D7020008D7020008D7020008DB
:1001A000D7020008D7020008D702000800F002F8C2
:1001B00000F06DF80AA090E8000C82448344AAF194
:1001C0000107DA4501D100F062F8AFF2090EBAE892
:1001D0000F0013F0010F18BFFB1A43F0010318477B
:1001E000000B0100200B01000A444FF0000C10F836
:1001F000013B13F0070408BF10F8014B1D1108BFA5
:1002000010F8015B641E05D010F8016B641E01F844
:10021000016BF9D113F0080F1EBF10F8014BAD1C94
:100220000C1B09D16D1E58BF01F801CBFAD505E0B2
:1002300014F8016B01F8016B6D1EF9D59142D6D30C
:10024000704700000023002400250026103A28BF34
:1002500078C1FBD8520728BF30C148BF0B60704738
:10026000642900F0A980752900F0A680782900F0A3
:10027000DF80632900F0DA82732900F0DF8200203A
:1002800070471FB50BF074FD1FBD10B510BD00F019
:1002900007FB1146FFF7F5FF09F0AAFB00F025FB6D
:1002A00003B4FFF7F2FF03BC07F0A9F830BF72B642
:1002B000704762B6704780F30888704709488047E6
:1002C00009480047FEE7FEE7FEE7FEE7FEE7FEE738
:1002D000FEE7FEE7FEE7FEE704480549054A064B50
:1002E00070470000756B0008AD01000808C10220CE
:1002F00008C7022008C3022008C30220704700007C
:100300000FB4044910B503AA029800F09BFA10BC80
:100310005DF814FB2000002070B504468569006874
:10032000C10601D5302600E02026C00707D070BDE9
:10033000D4E9012130469047206A401C20626D1E9E
:10034000F6D570BD70B5044685690078C00707D141
:1003500070BDD4E9012120209047206A401C206212
:100360006D1EF6D570BD70B50C460546012A05D048
:100370002878800600D5EA69002302E0012305E021
:100380005B1C934202D2E05C0028F9D1A869E61810
:10039000C01AA861286A184428622846FFF7BCFFE3
:1003A00004E0D5E9012114F8010B9047B442F8D3D9
:1003B0002846FFF7C7FF70BD2DE9F041064600242F
:1003C00010687529314616A510D0AFF300800028BB
:1003D00002DA404213A507E031688A0701D512A569
:1003E00002E0490704D511A5012401E0AFF3008024
:1003F00000210A2206F1240709E0B0FBF2FCB0FB61
:10040000F2F302FB1C00303078541846491C0028D7
:10041000F3D123462A463046BDE8F04100F0A3B9A7
:10042000000000002D0000002B0000002000000054
:1004300070B504460D4621461068AFF30080218850
:10044000090502D50F4A7A4402E00E4A7A440E3278
:10045000002104F1240305E000F00F060009965D79
:100460005E54491C0028F7D120780023000704D5EA
:10047000702D02D009B1022311322046BDE8704030
:1004800000F071B9CA0401002DE9F05F8946044605
:100490004FF0000ADFF874B1FB44C0F820A02046FA
:1004A000E1688847002874D0252806D0D4E90121C6
:1004B0009047206A401C2062F1E700265F462046F4
:1004C000E16888472028054607DB312D05D27819D9
:1004D00010F8200C08B10643F1E7B00701D526F06B
:1004E0000406C4F81CA00027C4F818A02A2D09D0BF
:1004F000284606F07DFF38B304EB8708303DC8F886
:10050000185019E059F8041B204604EB870291614A
:10051000E1688847012F054618D1E069002820DAF4
:1005200026F020061DE0D8F8180000EB800005EB4F
:1005300040003038C8F818002046E1688847054672
:1005400006F056FF0028EED1012F0AD02E2D08D13B
:100550002046E16888477F1C0546022F46F02006AA
:10056000C4DBA069002803DA404246F00106A0611E
:10057000F00701D026F010066C2D0BD0682D09D0A5
:100580004C2D39D06A2D35D0742D35D07A2D33D0FD
:1005900016E038E0E1682F4620468847B842054615
:1005A00009D16C2F26D04FF48060E16806432046C5
:1005B0008847054604E06C2F1AD04FF4807006433C
:1005C0000DB3A5F14100192802D8203546F4006684
:1005D0004A462946204626604E46FFF741FE80B136
:1005E00001280BD0F61D26F0070000F1080956E798
:1005F0004020E4E78020D8E70020D6E706F1040990
:100600004DE7284652E7206ABDE8F09FA0040100AC
:1006100040EA0103024630B59B0710D14FF0013488
:1006200000E008C208C91D1B9D4315EAC41FF8D08D
:1006300013F0FF0102F8011B0DD01B0AF8E711F8B7
:10064000013B002B02F8013B05D011F8013B002BC8
:1006500002F8013BF3D130BD421E12F8013F002BDE
:10066000FBD111F8013B002B02F8013BF9D1704797
:10067000032A40F2308010F0030C00F0158011F8CE
:10068000013BBCF1020F624498BF11F801CB00F8A6
:10069000013B38BF11F8013BA2F1040298BF00F8FA
:1006A00001CB38BF00F8013B11F0030300F02580B7
:1006B000083AC0F0088051F8043B083A51F804CBDE
:1006C000A0E80810F5E7121D5CBF51F8043B40F8A4
:1006D000043BAFF30080D20724BF11F8013B11F8AF
:1006E00001CB48BF11F8012B24BF00F8013B00F8F3
:1006F00001CB48BF00F8012B704710B5203AC0F07D
:100700000B80B1E81850203AA0E81850B1E8185012
:10071000A0E81850BFF4F5AF5FEA027C24BFB1E84F
:100720001850A0E8185044BF18C918C0BDE81040C0
:100730005FEA827C24BF51F8043B40F8043B08BFC9
:100740007047D20728BF31F8023B48BF11F8012B90
:1007500028BF20F8023B48BF00F8012B70477047C4
:100760007047704770472DE9F0470D46994692460D
:10077000044600F124080168880604D5E06921F0E8
:100780001001216000E00120A84201DD471B00E0CC
:100790000027A1697A1902EB0900081AA0612078E4
:1007A000C00602D42046FFF7B7FD002608E0D4E9D2
:1007B00001211AF806009047206A401C761C20622E
:1007C0004E45F4DB2078C0060AD52046FFF7A4FD8D
:1007D00006E0D4E9012130209047206A401C2062C5
:1007E000381EA7F10107F4DC07E0D4E9012118F86D
:1007F00005009047206A401C2062281EA5F10105D3
:10080000F3DC2046FFF79EFD2078000602D502208B
:10081000BDE8F0870120FBE710B5436913B1AFF3E2
:10082000008001E0FFF79FFD012010BD127800F16C
:1008300024010A7000224A700122EDE711684FF08E
:10084000FF32E9E7074B70B50D467B4400F011F825
:100850000446284600F020F810B14FF0FF3070BD7C
:10086000204670BDB38E000001694A1C0261087801
:10087000704700B58FB0CDE90131002105910549E0
:100880007944CDE9031011466846FFF7FDFD0FB02E
:1008900000BD0000E5FFFFFF007B00F08000704717
:1008A000754600F02BF8AE4605006946534620F029
:1008B0000700854618B020B5FFF70EFDBDE82040C3
:1008C0004FF000064FF000074FF000084FF0000B0C
:1008D00021F00701AC46ACE8C009ACE8C009ACE8BF
:1008E000C009ACE8C0098D46704710B50446AFF3A7
:1008F00000802046BDE81040FFF7D2BC004870479A
:10090000A4C00220FEE7704770B5B3F5804F05D054
:100910006FF0704140F82210002070BD50F8223076
:10092000084C2340D1E9004544EA05148D688E89BE
:100930002D0245EA064589692C430C431C4340F8C7
:100940002240E9E70000F0CFF0B50C6850F82450E1
:10095000194A1540D1E90123D1E903671A433E43FF
:1009600032434E6932438E693243CE6932430E6A56
:1009700032434E6A32438E6A3243CE6A3243CE6B82
:1009800032430E6B32434E6B32432A43082B01D164
:1009900042F0400240F824204A6BB2F5801F08D193
:1009A0000A6832B14FF480720A6104490268114347
:1009B00001600020F0BD00008000E0FF0001100099
:1009C000F0B500EB820253688E8903F04044D1E910
:1009D000003543EA05138D682D0245EA06452B4391
:1009E0000E8A0D4D05EB065633430E7D6F0107EB66
:1009F000066633438E693343234353600268D20251
:100A000007D54268098A22F4700205EB01511143AF
:100A100041600020F0BD00000000F0FF30B5D1E9DA
:100A200001231A43D1E9033423431A434B690D6868
:100A30001A438B691A43D1E90734012D496A0568C5
:100A40006FF30E0505D01A4322430A432A4302607E
:100A500008E0234329430B43416803606FF30E0111
:100A60000A434260002030BD426942EA41014161CF
:100A700000207047F8B514460546D1E9000210433E
:100A80008A686FF01F03C96803EB421242EA4121F2
:100A900008430090286100F09FF9064609E0601CB9
:100AA00007D024B100F098F9801BA04201D903209F
:100AB000F8BDA8698006F2D40020F8BDF0B56FF04B
:100AC0000F05D1E9003405EB04145B1E2E0123430E
:100AD0008C682F0306EB04244FEA054C23430D8A50
:100AE0008E8ACC68097E4FF07F4E07EB05450CEBF4
:100AF00006560EEB0161012A0CD082683F1107EB0C
:100B0000043423432B43334302F070420B4313431B
:100B100083600FE0C2682B430B4302F07042816890
:100B2000134301F070422103A1F580513143114379
:100B3000C36081600020F0BD30B40C46014615460C
:100B4000500700D0012000EBD50010FB05F0C2B229
:100B500008784B78812809D3402B07D3FF2B05D089
:100B6000FF2803D07F2B0CD2403B0BE0002318461C
:100B700003E05B1C04F8010BDBB29342F9D330BCF9
:100B80007047413B8138D9B2C0B2C0EB401303EB90
:100B9000801001EB400050430C490C2D0CD0102D5F
:100BA0000DD0182D0ED0202DE9D1D1F821100144FF
:100BB000204630BC06F0EEBAD1F80910F7E7D1F8BC
:100BC0001110F4E7D1F81910F1E7000078C0022005
:100BD00031B500F001F9044600F0FEF80099001B61
:100BE0008842F9D338BD00002DE9F84FDFF8A09115
:100BF000002209F1040A0AF1040B4FF00F080BF16F
:100C0000040E01260B6896403340B34271D14C6804
:100C1000022C01D0122C11D1D40800EB84073D6ABC
:100C20005407E40E08FA04FC25EA0C05D1F810C0BC
:100C30000CFA04FC4CEA050CC7F820C00768540005
:100C4000032591F804C0A5400CF0030CAF430CFA47
:100C500004FC4CEA070CC0F800C04F68012F05D017
:100C6000022F03D0112F01D0122F11D18768D1F894
:100C70000CC0AF430CFA04FC4CEA070CC0F808C0E7
:100C80004768B7430E79C6F3001696403E43466068
:100C9000C668AE438D68A5403543C5604C68E40026
:100CA0006FD53C4C256845F480452560246822F0CA
:100CB000030504F480440094374C2E19D6F80878C4
:100CC0009407250F08FA05F4A743344CA04201D13C
:100CD00000242EE0324CA04201D1012429E0314C05
:100CE000A04201D1022424E02F4CA04202D10324CF
:100CF0001FE046E02D4CA04201D1042419E02C4C09
:100D0000A04201D1052414E02A4CA04201D10624BE
:100D10000FE0294CA04201D107240AE0274CA04251
:100D200001D1082405E0264CA04201D1092400E0AD
:100D30000A24AC403C43C6F80848D9F800404D4668
:100D40004E689C43F60300D51C432C60DAF8004043
:100D500055464E689C43B60300D51C432C60DBF817
:100D600000405D464E689C43F60200D51C432C6053
:100D7000DEF8004075464E689C43B60200D51C4321
:100D80002C60521C102AFFF43CAFBDE8F88F000025
:100D9000003C014044380240003001400000024065
:100DA0000004024000080240000C02400010024013
:100DB0000014024000180240001C024000200240C3
:100DC000002402400069084000D0012070470AB1A9
:100DD000816170470904FBE7014800687047000023
:100DE0001400002002480168491C0160704700009F
:100DF000140000200B4810B5016841F40071016037
:100E0000016841F480610160016841F48071016012
:100E1000052000F0BFF90F2000F006F800F08AF975
:100E2000002010BD003C024010B5044600F060FCFC
:100E30004FF47A71B0FBF1F001F02EFD0022214653
:100E4000501E00F087F9002010BD2DE9F041044646
:100E500090F8A00015460F4601281DD0012684F801
:100E6000A060022084F8A10005EB850000EBC5001E
:100E700004EB800034223830FFF73FFC2A46394625
:100E8000204604F01BFF2068466284F8A160002021
:100E900084F8A000BDE8F0810220FBE770B50400F3
:100EA00004D094F8A100002510B106E0012070BD27
:100EB00084F8A050204600F06FF8022084F8A100CA
:100EC0002068816921F070418161D4E901100143FA
:100ED000D4E9030210430143206882691143816110
:100EE000206882682B490A408260A08A0204206838
:100EF0008368A6693343134383602068C2680A404D
:100F0000C260A08B02042068C368266A334313437F
:100F1000C360206802690A400261A08C0204206854
:100F20000369A66A334313430361206842690A4098
:100F30004261A08D010420684269236B1A430A4371
:100F4000426194F83500020294F8360001042068EA
:100F5000C36A03F07F43C3622068C36A94F83460B5
:100F6000114333430B43C3622068416B41F00401DA
:100F700041632068416B41F002014163206881694F
:100F800041F001018161C4F8A450012084F8A1005E
:100F9000002070BD00F800F030B5364887B000255D
:100FA000016841F080610160006800F08060059098
:100FB00030481438016841F400010160016801F40F
:100FC00000010591016841F002010160016801F032
:100FD00002010591016841F020010160016801F002
:100FE00020010591016841F040010160016801F0B4
:100FF00040010591016841F080010160016801F044
:1010000080010591016841F480710160006803244A
:1010100000F480700590202000900120CDE90204AA
:10102000019069461448FFF7DFFD4FF4806000909F
:101030000220CDE901050E20CDE9034069460F48A5
:10104000FFF7D2FD4FF40C60009069460C48FFF7A3
:10105000CBFD4FF47E40009069460A48FFF7C4FD7F
:1010600040F2F760009069460748FFF7BDFD07B002
:1010700030BD000044380240000402400014024029
:1010800000180240001C02400020024070B50446D7
:1010900090F8A0000E46012820D0012584F8A05029
:1010A000022084F8A10003EB830000EBC30004EBF3
:1010B000800141F8386F886A3044C1E90102C86A8A
:1010C0001044C8601A46204604F0F8FD20684562C6
:1010D00084F8A150002084F8A00070BD022070BDEB
:1010E0002DE9F041044690F8A0000F4601281FD0DA
:1010F000012584F8A050022084F8A10003EB8300AE
:1011000000EBC30004EB80010026E1E90E672046F6
:10111000C1E90262C1E90A721A4604F0CFFD2068F3
:10112000456284F8A15084F8A0600020BDE8F081F9
:101130000220FBE708B50020009008BD00F01F0268
:10114000012191404009800000F1E020C0F8001129
:1011500070470000F0B40E4B1B68C3F30223C3F1C9
:101160000704042C00D904241D1D072D01D20023DF
:1011700000E0DB1E012606FA04F56D1E0D409D40C1
:101180009E40761E164045EA0601F0BC04F049BEBA
:101190000CED00E0064A00F0070110684FF6FF036F
:1011A000184040EA012003490843106070470000DE
:1011B0000CED00E00000FA052DE9F8431D48016838
:1011C00041F0805101600068012700F080500090DC
:1011D000380490FAA0F0DFF86080B0FA80F048F8A8
:1011E0002070FFF7F9FD04464FF47A75134E04E0C2
:1011F000FFF7F2FD001BA84213D87068C003F7D5B3
:101200004FF4003090FAA0F0B0FA80F048F8207067
:10121000FFF7E2FD044607E0FFF7DEFD001BA842F2
:1012200002D90320BDE8F88370688003F4D500205C
:10123000F8E700004038024000000E420070004015
:101240002DE9F84F04460068DFF878829E4DC1070B
:1012500047F6C07A4FF0E0464FF0010B4FF000091F
:1012600001D180074BD59949C1F86890FFF7B4FDCB
:10127000074604E0FFF7B0FDC01B64287ED828684D
:101280000001F7D420789249C0070DD09AFAAAF24B
:101290006068B2FA82F2904096FAA6F3A268B3FAB6
:1012A00083F39A40104308602078800718D50868B7
:1012B00096FAA6F200F0E040B2FA82F2D0406268FC
:1012C000237B920142EA036242EA00700860D8F888
:1012D0000010E26921F01F01521E1143C8F80010EE
:1012E0007A49C1F868B0FFF777FD074604E0FFF7D9
:1012F00073FDC01B642841D828680001F7D5206819
:10130000410701D4000776D57049C1F87090FFF706
:1013100063FD074604E0FFF75FFDC01B64282DD87E
:101320002868C0438000F6D520786A4F40074FF008
:10133000706C29D5386896FAA6F100F0E040B1FA51
:1013400081F1C8409AFAAAF22169B2FA82F2914078
:101350009CFAACF36269B3FA83F39A40114396FAAC
:10136000A6F2B2FA82F2904001433960D8F8001038
:101370006FF0FF0321F4F851226A00E079E003EBFB
:1013800002221143C8F800102078000723D53868DE
:101390009CFAACF100F07060B1FA81F1C8409AFAA1
:1013A000AAF22169B2FA82F291409CFAACF2B2FA46
:1013B00082F29040014396FAA6F2A069B2FA82F254
:1013C000904001433960D8F80010626A21F440313E
:1013D0001143C8F800103D49C1F870B0FFF7FCFC9C
:1013E000064604E0FFF7F8FC801B642841D8286813
:1013F000C0438000F6D42078800651D532484F464D
:101400004030016841F0805101600068324E00F0C8
:1014100080500090306840F480703060FFF7DCFC52
:10142000054604E0FFF7D8FC401B642821D830684B
:10143000C005F7D5264E143E3068218D00F440706B
:1014400001F4407188422BD03068244920F4407068
:10145000C1F800B00F603060800710D5FFF7BCFC0A
:10146000054641F2883707E0FFF7B6FC401BB8425B
:1014700002D90320BDE8F88F30688007F4D5A06A50
:101480001149C0F301220831032A13D0086820F45F
:10149000F81008603068218DC1F30B0108433060FB
:1014A0002078C00604D50E4994F82C00C1F8E0015C
:1014B0000020DFE70A680B4B22F4F81218400243C1
:1014C0000A60E7E78C3802400038024000004742DB
:1014D000843802408838024000700040400E474285
:1014E00000104742FFFCFF0F2DE9F05FDFF8F8A185
:1014F00004460F46DAF80000DFF8F08100F00F0232
:10150000C8B27A49814641F2883608F10808BA42E1
:1015100061D202468AF80020DAF8000000F00F00DD
:10152000B8427DD12078800707D5D8F80020A3687D
:1015300022F0F0021A43C8F800202078C0072DD00E
:10154000606801281AD002281BD0032819D0096826
:101550008907002964DAD8F80010474621F0030112
:101560000143C8F80010FFF737FC05466068012802
:101570000FD0022818D003281CD027E0096889035F
:10158000E7E709688901E4E7FFF726FC401BB04262
:1015900058D83868C0F381000128F5D188E0FFF7FA
:1015A0001BFC401BB0424DD83868C0F381000228B4
:1015B000F5D17DE03868FFF70FFC401BB042F9D948
:1015C00040E0FFF709FC401BB0423BD8386810F000
:1015D0000C0FF6D16CE02078800707D5D8F80020F2
:1015E000A36822F0F0021A43C8F800202078C00750
:1015F0004CD06068012828D0022829D0032827D0A1
:1016000009688907002949DAD8F8002022F0030286
:101610000243C8F80020FFF7DFFB0546606800E0E2
:101620003CE001281DD0022829D0032838D0B34639
:101630004646306810F00C0F28D0FFF7CDFB411B59
:101640005945F6D90320BDE8F09F09688903D9E719
:1016500009688901D6E7FFF7BFFB411B594502D94D
:10166000F0E7B34646463068C0F381000128F2D166
:101670000CE0FFF7B1FB411B594502D9E2E7B34645
:1016800046463068C0F381000228F2D18AF8009003
:10169000DAF8000000F00F00B84209D00120D2E7CC
:1016A00044462068FFF798FB401BB042F9D9C9E7D0
:1016B0002078400707D5D8F80010E26821F4E051FF
:1016C0001143C8F800102078000708D5D8F800109A
:1016D000226921F4604141EAC201C8F800100F20DC
:1016E000FFF7A2FB0020AEE7003C024000380240BA
:1016F00010B500F043F808490968F02292FAA2F206
:1017000001F0F001B2FA82F2D140044A515CC840C3
:101710000349086010BD0000083802407ABD000887
:101720000000002010B5FFF7E3FF074909684FF4F8
:10173000E05292FAA2F201F4E051B2FA82F2D14000
:10174000024A515CC84010BD083802407ABD00080A
:1017500010B5FFF7CDFF074909684FF4604292FAD0
:10176000A2F201F46041B2FA82F2D140024A515C25
:10177000C84010BD083802407ABD000830B519488D
:10178000006810F00C01184812D0184C04290ED033
:1017900008290DD1134A121F1168136801F03F0187
:1017A0005D0247F6C07304D5B4FBF1F003E02046B8
:1017B00030BDB0FBF1F01168194093FAA3F3B3FA0E
:1017C00083F3D940484311684FF4403292FAA2F2B1
:1017D00001F44031B2FA82F2D140491C4900B0FB19
:1017E000F1F030BD083802400024F40040787D015B
:1017F0002DE9F84F04460078DFF8FCA2BF4DC00782
:101800004FF0000648D0DAF800105046C1F38101CD
:10181000012908D00068C0F3810002280AD1281DE0
:101820000068400206D52868800335D56068002826
:1018300073D031E0DFF8C49209F1020989F8006041
:10184000FFF7CAFA074641F2883804E0FFF7C4FA06
:10185000C11B41457AD828688003F7D4207989F8DC
:101860000000606860B1FFF7B7FA074604E0FFF7D1
:10187000B3FAC11B4145EDD828688003F7D50BE0CA
:10188000FFF7AAFA074604E0FFF7A6FAC11B414595
:10189000E0D828688003F7D42078DFF864928007C6
:1018A00044D5DAF80010504611F00C0F4FF0F8084C
:1018B00009D00068C0F3810002280BD18E48001FB8
:1018C0000068400206D42868800714D5E068012823
:1018D00023D110E0E068D0B10120C9F80000FFF783
:1018E0007BFA074604E0FFF777FAC01B6428B1D8FB
:1018F00028688007F7D5286898FAA8F22169B2FA13
:1019000082F220F0F8009140084328600EE0C9F808
:101910000060FFF761FA074605E0EAE0FFF75CFACE
:10192000C01B642812D828688007F7D420780007E5
:1019300025D5DFF8C4817348616908F16C0881B16D
:1019400001210160FFF748FA074605E07EE0FFF756
:1019500043FAC01B642879D8D8F800008007F6D570
:101960000DE00660FFF738FA074604E0FFF734FAA7
:10197000C01B64286AD8D8F800008007F6D4207805
:10198000400753D55C483830016841F08051016010
:101990000068DFF8748100F080500090D8F80010E3
:1019A00041F48071C8F80010FFF716FA074604E00A
:1019B000FFF712FAC01B642848D8D8F80000C00509
:1019C000F6D5DFF834B10BF1680B8BF80060FFF748
:1019D00003FA074641F2883804E0FFF7FDF9C11B1E
:1019E00041457ED8DBF800008007F6D4207A8BF8DA
:1019F0000000A06868B1FFF7EFF9074604E0FFF7C1
:101A0000EBF9C11B41456CD8DBF800008007F6D527
:101A10000CE0FFF7E1F9074604E0FFF7DDF9C11B31
:101A200041455ED8DBF800008007F6D4A069E8B332
:101A3000DAF80010C1F3810102295AD0022806D039
:101A4000C9F86060FFF7C8F904464DE049E04F4629
:101A5000C9F86060FFF7C0F9064604E0FFF7BCF97B
:101A6000801B64283DD828688001F7D4D4E9070199
:101A7000084347F6C07191FAA1F1626AB1FA81F1A7
:101A80008A40A16A4FF0FF3303EB51014FF440331A
:101A900093FAA3F3B3FA83F399400A4310434FF048
:101AA000706292FAA2F2B2FA82F200E01FE0E16AFA
:101AB000914008431049091F086001203866FFF76C
:101AC0008BF9044604E0FFF787F9001B642808D867
:101AD00028688001F7D50AE0FFF77EF9001B64282B
:101AE00002D90320BDE8F88F28688001F4D40020D3
:101AF000F8E70120F6E7000008380240003802400D
:101B000000004742800E47420070004070B50D460D
:101B1000040003D094F82C0010B107E0012070BD40
:101B2000002084F82D00204600F012F8022084F8EE
:101B30002C00211D2068FEF771FFD4E90002294620
:101B4000FEF7BCFF012084F82C00002070BD0000CF
:101B5000304800B5016887B041F0010101600068BC
:101B600000F0010005902B480838016841F004019D
:101B70000160016801F004010591016841F008016C
:101B80000160016801F008010591016841F0100150
:101B90000160016801F010010591016841F0200128
:101BA0000160016801F020010591016841F04001E8
:101BB00001600068694600F0400005900D2000902B
:101BC0000220019001200290032003900C20049039
:101BD0001148FFF709F84CF20370009069460F486E
:101BE000FFF702F84FF68370009069460C48FEF745
:101BF000FBFF4FF63F00009069460A48FEF7F4FFEE
:101C000048F23710009069460748FEF7EDFF07B02D
:101C100000BD00003838024000080240000C0240BD
:101C200000100240001402400018024010B50446A3
:101C300090F82C00022809D0022084F82C0020689B
:101C4000FEF712FF012084F82C00002010BD70B5B3
:101C5000044690F82C000D4602280CD0022084F88F
:101C60002C002068FEF706FF2868022804D0012017
:101C700084F82C00002070BD0520F9E72DE9F0471D
:101C800090F8202081F85620828CA1F85420826A96
:101C90000023120E94090C70C2F383044C7002F0FE
:101CA00003028A70826A120CCA70028D120A0A71CB
:101CB00090F828204A71C26A4FF6FF7A120E0AEA9B
:101CC0000212CA80C26ACC88C2F3074244EA1214E4
:101CD000CC8002F00F020A72828DC2F30722D4096F
:101CE0004C72C2F380148C72C2F34014CC72C2F3F3
:101CF00000140C7300264E73046A4FF00109002C87
:101D00007DD0012CFCD0022C7AD02923C2F3801480
:101D10004C769206520E01F81A2F10F8302F0C78DC
:101D200044EAD21401F8014B02F07F0201F8012BC2
:101D300050F8042F120ED4090C70C2F341144C70E9
:101D4000C2F382048C709207120FCA7004C8CC7858
:101D5000C2F3074244EA9214CC70C2F340140C71EF
:101D60004E7102F001028A7130F8042CC2F307228E
:101D7000D409CC71C2F380140C72C2F340144C72BB
:101D8000C2F300148C72C2F38104CC7202F003021D
:101D90000A7310F8042C52084A734C4681F80E90CE
:101DA00050F8082B120E0A7450F8082C120C0AEA8C
:101DB00002224A8230F8082C4D8AC2F307221543CA
:101DC0004D8210F8082C120641F8142F50F8042CFC
:101DD0000D68120E45EA02420A6050F8042C0D68A4
:101DE000C2F3074245EA02220A6030F8042C0D686B
:101DF000C2F30722154320C110F8042C01E034E09F
:101E000076E001F8012B0268120E01F8032B02683C
:101E1000120C12060A6002880D68C2F3072245EA16
:101E200002420A6002780D6845EA02220A604268AE
:101E30000D6845EA126520C142680D78C2F3074279
:101E400045EA121501F8025B1207120D0A8082881A
:101E50000D88C2F30722154321F8025B0079400880
:101E600008704C701846BDE8F0879207120D0A61A1
:101E700090F82C200C6944EA82020A61026B0C691A
:101E8000120E44EA92140C61C2F3C2040C7502F003
:101E900007024A75026BC2F3074254098C75C2F3FC
:101EA0008204CC759207520F0A76028E0C7EC2F322
:101EB000072244EAD2140C760C690F7EBF1C09FA83
:101EC00007F5641CA4FB05784FEAE57C06FB058555
:101ED00004FB0C5591F808C009FA0CF4A7FB04C8E0
:101EE0000C6505FB048407FB0644C1E912C40DE739
:101EF00090F82C209206920A0A61026B0C69120E6D
:101F000044EA02220A61026B0C69C2F307421443DD
:101F10000C61028E0C69C2F30722641C46F10005B5
:101F2000ED0445EA5435E404C1E912454FF4007468
:101F30000C65EBE670B586B000250E4604468DF8BC
:101F40000C50057700F046F876200095CDE9015059
:101F50002B462A462946206803F096FF204604F0C7
:101F6000C3FA8DF80C009DF80C0038B9204604F037
:101F7000AFF98DF80C009DF80C0018B19DF80C001D
:101F800006B070BD31462046FFF778FE8DF80C0094
:101F90009DF80C00A0B9B6F8540069460004009002
:101FA000072001904020CDE902050001049020683F
:101FB00003F083FF0721204603F0FCFF8DF80C009F
:101FC00004F1100007C88DE8070094E80F0003F043
:101FD0005BFFD3E71D4800B5016887B041F400619D
:101FE0000160006800F4006005901848143801682A
:101FF00041F480010160016801F4800105910168EC
:1020000041F004010160016801F0040105910168DB
:1020100041F0080101600068694600F00800059081
:102020004FF4F8500090022001900120029003200C
:1020300003900C2004900648FEF7D6FD0420009083
:1020400069460448FEF7D0FD07B000BD44380240A1
:1020500000080240000C02402DE9F04F8BB004460E
:102060000D46DDE91478216800201646C862216A11
:10207000022903D10F02560A46EAC3561021CDE9C0
:1020800000714021834608010291CDE903B0694601
:10209000206803F012FF1021204603F08BFF002878
:1020A0006DD14FF0FF3A08FB07F0CDE905A007A975
:1020B00090204FF0020981E8010A01200A9005A949
:1020C000206803F0BFFEB8F1010F01D9122000E033
:1020D0001120CDE900606946206803F0EEFEB8F1FA
:1020E000010F1AD91221204603F064FF070046D1E0
:1020F00040F22A3B2068416B11EA0B0F28D1406B5C
:102100000004F7D50026206803F0D4FE45F8260029
:10211000761C082EF7D32035ECE71121204603F07A
:1021200049FF07002BD140F22A6B2068416B11EA6E
:102130000B0F0DD1406B0004F7D50026206803F08B
:10214000B9FE45F82600761C082EF7D32035ECE7BB
:10215000406BC0050CD5B8F1010F09D9206A18B140
:10216000012801D0022803D1204600F033F80746A9
:102170002168486B000705D50820886304200BB050
:10218000BDE8F08F486B800703D54846C1F838900A
:10219000F5E7486B800603D5202088630620EEE72C
:1021A000486B800504D54FF4007088630720E6E78C
:1021B000564603E003F07EFE01C5761E2068416BA3
:1021C000890201D5002EF5D1216840F2FF508863C5
:1021D0003846D4E710B586B0044600200C21CDE97E
:1021E00000014021CDE902100801049069462068F1
:1021F00003F063FE0C21204603F0DCFE06B010BDA8
:10220000FEB50446006A00250E46032805D030B10D
:10221000012804D0022802D01FE02720FEBDB6F519
:10222000805F05D0B6F5006F04D03EB1262514E0DE
:10223000272512E0204604F092FA02E0204604F03E
:1022400055FA050009D1211DD4E905070EC9CDE9CC
:1022500000600297206803F017FE2846FEBD2DE9B6
:10226000F04F8DB0064600250C468DF82C50DDE968
:102270001698316817462846CD62316A4FF4007BC4
:10228000022903D1570AD94647EAC3571021CDE99D
:1022900000914021824608010291CDE903A06946E0
:1022A000306803F00AFE1021304603F083FE002858
:1022B0006ED1B8F1010F01D9192000E01820CDE945
:1022C00000706946306803F0F8FDB8F1010F01D9DC
:1022D000192100E01821304603F06CFE00287FD160
:1022E000411E09FB08F99020CDE906900591CDF833
:1022F00020A00120CDE909A005A9306803F0A2FDC6
:10230000B8F1010F24D84FE0406B400420D5A9EB71
:102310000500202811D281074FEA900000D0401C10
:102320008246002706E02146306803F0D6FD241DD2
:102330002D1D7F1C57450BD2F5E7002704EB8701C5
:10234000306803F0CAFD7F1C082FF7D320342035F6
:102350003068416B40F21A321142D5D02AE0406B0E
:10236000400421D5A9EB0500202812D281074FEAAD
:10237000900000D0401C8246002706E021463068CD
:1023800003F0ABFD241D2D1D7F1C57450CD2F5E736
:1023900026E0002704EB8701306803F09EFD7F1CD8
:1023A000082FF7D3203420353068416B40F21A6291
:1023B0001142D4D0406BC0050BD5B8F1010F08D93C
:1023C000306A18B1012801D0022802D13046FFF747
:1023D00001FF3168486B000705D508208863042099
:1023E0000DB0BDE8F08F486B800702D502208863EE
:1023F000F6E7486BC00603D5102088630520EFE799
:10240000486B800503D5C1F838B00720E8E740F2F3
:10241000FF5088630BA9304603F0C8FF0028DFD1C6
:102420009DF82C100729F5D00629F3D0D8E770B510
:10243000040004D094F85100002510B106E00120FA
:1024400070BD84F85050204600F034F8022084F823
:1024500051002068016821F040010160D4E90101C8
:102460000843D4E903121143084361690843218BEF
:1024700001F400710843E1690843216A0843A16A35
:10248000084321680860A069042101EA1040616ADC
:102490000843216848602168E06A08612068C169D2
:1024A00021F40061C1616565012084F851000020BC
:1024B00070BD0000124800B5016887B041F02001EE
:1024C0000160006800F0200005900D48143001689C
:1024D00041F4801101600068012100F48010059032
:1024E0004FF4607000900220CDE9010103900520B7
:1024F000049069460348FEF777FB07B000BD000073
:1025000030380240001402402DE9F843044690F8A8
:102510005100DDF82080012801D022287ED169B148
:1025200062B15BB194F85000012877D0012784F89C
:10253000507094F85100012803D005E00120BDE857
:10254000F883322084F8510000266665A263A387D1
:10255000E3872163A386E386A664E664A06A4FF45A
:102560000055A84209D12068016821F4005101609A
:102570002068016841F40051016020680168490643
:1025800003D4016841F040010160E0684FF48271BA
:10259000B0F5006F606807D0002867D088426ED120
:1025A000E08E012862D06AE020B188420CD1E08E32
:1025B000012809D1206B21680088C860206B801C2D
:1025C0002063E08E401EE086E08E80B9A06AA842BB
:1025D00044D12068016841F4805101603EE02068E8
:1025E000C068A16B0880A06B801CA0639EE043467E
:1025F00000220221204604F07DF9002874D1206BCE
:1026000021680088C860206B801C2063E08E401E1B
:102610000004000CE08609D1A06A00E0C7E0A842EF
:1026200004D12068016841F48051016043460022D2
:102630000121204604F05EF900286FD12068C068AF
:10264000A16B0880A06B801CA063E08F401EE08718
:10265000E08E0028CBD1606800286AD14346002272
:102660000121204604F046F9F0BBB8E7206B411C7D
:10267000216321680078C860E08E401EE086E08E0D
:1026800098B9A06AA84204D12068016841F4805139
:102690000160434600220121204604F02BF918BBBB
:1026A0002068C068A16B087040E043460022022108
:1026B000204604F01FF9B8B9206B411C2163216842
:1026C0000078C860E08E401E0004000CE08607D150
:1026D000A06AA84204D12068016841F480510160D9
:1026E00000224346012100E018E0204604F002F9F0
:1026F000A0B92068C168A06B421CA2630170E08F82
:10270000401EE087E08E0028CFD1606888B943463C
:1027100000220121204604F0EDF808B103200EE765
:102720002068C168A06B421CA2630170E08F401E4C
:10273000E087A06AA84210D143460022012120462A
:1027400004F0D8F818B1606D40F002000FE0206886
:10275000C068ADF80000BDF80000434601228021AA
:10276000204604F0C7F820B1606D40F0200060659D
:10277000D4E784F8517020688168A26AC1F300111F
:10278000AA4210D179B1616D41F002016165016821
:1027900021F4005101602068016841F4005101609A
:1027A00084F85060CAE684F850600020C7E6022032
:1027B000C5E670B515460E46040003D094F84900EE
:1027C00010B107E0012070BD002084F848002046C9
:1027D00000F01AF804F108012068FEF7B5F8314658
:1027E000A2682068FEF7ECF8D4E901022946236BC1
:1027F000FEF78AF8A168206850F8212042F0010213
:1028000040F82120002070BD1A4800B5016887B04B
:1028100041F001010160006800F0010005901548D9
:102820000838016841F008010160016801F0080101
:102830000591016841F0100101600068694600F0EF
:10284000100005904EF2B37000900220019001201C
:102850000290032003900C2004900748FEF7C4F96F
:102860004FF68070009069460448FEF7BDF907B046
:1028700000BD000038380240000C02400010024049
:102880004FF0E0210428086903D020F0040008611B
:10289000704740F00400FAE710B5401EB0F1807FA9
:1028A00001D3012010BD4FF0E02460610F216017BB
:1028B00003F0B7FA0020A06107202061002010BDBE
:1028C00010B5040003D094F8390010B107E00120DE
:1028D00010BD002084F83800204600F00CF80220DB
:1028E00084F83900211D206804F088F9012084F85B
:1028F0003900002010BD70470168CA6842F001022B
:10290000CA600068016841F0010101600020704761
:10291000704738B5016804460868CA68C0F300000B
:1029200002F4807238B132B1086848680090E06BF8
:1029300040F00100E06308684A69C0F3400002F01B
:10294000010238B132B1086848680090E06B40F08D
:102950000400E06308684A69C0F3800002F00102E5
:1029600038B132B1086848680090E06B40F002006E
:10297000E06308684A69C0F3C00002F0010238B1A0
:1029800032B1086848680090E06B40F00800E063EE
:102990000868C968C0F3401001F0200118B111B1F6
:1029A000204604F0B5F920680168C068C1F3C01181
:1029B00000F0800019B110B1204604F0B7FA216888
:1029C0000868CA68C0F3801002F04002012568B1AF
:1029D00062B1CA68204622F04002CA6094F83910F9
:1029E00032290CD080F8395000F0E4F8E06B002870
:1029F00004D084F839502046FFF78AFF38BD2221E1
:102A000080F83910F0E770B5040004D094F839006C
:102A1000002510B106E0012070BD84F83850204632
:102A200000F020F8022084F839002068C16821F401
:102A30000051C160204604F0BFF92068016921F40B
:102A4000904101612068416921F02A0141612068BB
:102A5000C16841F40051C160E563012084F8390088
:102A6000002070BD30B51E49044687B0086840F0AC
:102A70000100086008681A4900F00100143105904F
:102A8000086840F0100008600868164D00F010005B
:102A900005904815009002200121CDE90101039025
:102AA0000720049069462846FEF79EF828150090F6
:102AB00069462846FEF798F82168C86820F040006B
:102AC000C8602068C16841F02001C1602520FEF780
:102AD00035FB032211462520FEF73CFB07B030BD35
:102AE00030380240000002402DE9F047044690F8DB
:102AF000390099460D46012801D0122857D125B337
:102B00001AB394F83800012851D0012684F83860AF
:102B10000027E76394F83900122819D0222084F89E
:102B20003900A285E2854FF48058E08D4B46401E67
:102B3000E085A0684FF0000240454FF0200120469C
:102B400016D104F026FAB0B904E00120BDE8F08700
:102B50003220E4E7206900282068406803D0C1B231
:102B600025F8011B12E0C0F3080125F8021B0DE057
:102B700004F00FFA08B10320E8E720690028206874
:102B8000406801D000F07F0005F8010BE08D0028BF
:102B9000CBD194F83900322805D084F8396084F814
:102BA00038700020D2E7122084F83900F7E70220BD
:102BB000CCE770477047FEE770B51B4886B000252C
:102BC000016841F001010160016801F00101059116
:102BD000016841F004010160016801F00401059100
:102BE000016841F0800101600068032400F080006A
:102BF000059002200126CDE90204CDE90065694671
:102C00000A48FDF7F1FF700303948DE861006946FF
:102C10000748FDF7E9FF0C20009069460548FDF7DD
:102C2000E3FF06B070BD00003038024000000240F3
:102C300000080240001C02402DE9F0410121234C14
:102C4000234E244F244D012813D0207860B1D5F8AD
:102C50000C0280B1D5F8080268B1D6F8340250B140
:102C6000D7F80002012806D0D5F80C0201281ED0A2
:102C700029E02170EBE70A2004F07EFD002020709F
:102C8000D5F80C0250B1D5F8080250B1D6F834028C
:102C900048B1D7F80002012807D014E00120BDE8B0
:102CA000F0810220FBE70320F9E70420F7E7D5F8DD
:102CB0000802012807D1D6F83402012803D1D7F839
:102CC000000200B921700020E9E700002400002084
:102CD00000004142000040420080434270B50E496E
:102CE0000E4A064608881268002422B13046BDE824
:102CF000704002F0BFBD4D8800214543084602F0F8
:102D000013FC02F07FFDB1B2054801E00180641CB4
:102D1000AC42FBD370BD0000A80300209404002047
:102D2000000008602DE9F05F394C3A4DA071296828
:102D300039B102F0BFFDE88A2080288B6080BDE8B1
:102D4000F09F33492C232A2589884FF0F00949F256
:102D5000413A2B2645F2105B4FF4305E4FF4487732
:102D60004FF4A07845F2103C4FF4F07258B1A4F83B
:102D70000080A4F80290514501D0614529D12381FA
:102D80006581A68139E0A4F80090A4F8028051453D
:102D900001D0614508D123816581A681614531D18A
:102DA000A4F8008062802DE0594508D1A4F808E01D
:102DB0004FF4285060814FF42C50A08106E0A1F51B
:102DC000C85063381ED123816681A5812280678027
:102DD00018E0594508D1A4F808E04FF42850608164
:102DE0004FF42C50A08106E0A1F5C850633804D1FF
:102DF00023816581A68127806280614502D122807E
:102E0000A4F80280BDE8F05F002002F0B1BA000033
:102E1000A8030020940400202DE9F041044639481D
:102E20000D46006820B12046BDE8F04102F056BDD5
:102E3000354E270A3146B0884989A0F513434FEA39
:102E40001528413B0BD0A0F5A643103B07D0B3F5A6
:102E5000007311D0A0F5C853633B27D04BE0084660
:102E600002F0C4FC384602F0B5FCE0B202F0B2FC5D
:102E7000B08902F0BBFC38E0084602F0B7FC3846E7
:102E800002F0A8FC7089401C80B202F0AFFCE0B2F6
:102E900002F0A0FCB08902F0A9FC404602F09AFCC6
:102EA000B089401C80B202F0A1FC21E0B07918B9D1
:102EB0003088001B401E84B2084602F097FC270AA7
:102EC000384602F087FCE0B202F084FC384602F09B
:102ED00081FCE0B202F07EFCB08902F087FC404643
:102EE00002F078FCE8B202F075FC404602F072FC99
:102EF000E8B202F06FFC054930890880881C028026
:102F0000BDE8F08194040020A8030020FEFF0760C4
:102F10002DE9F8431F46144B804608981B6833B1CF
:102F200000903B46404602F0F7FCBDE8F883A2EB78
:102F30000802521C96B20C4685B2DFF830900FE0C2
:102F40002146404602F0F0FA02F05CFC00204946BF
:102F500002E00D80401C80B2B042FAD3641CA4B2DF
:102F6000BC42EDD9E1E700009404002000000860B5
:102F70002DE9F04F95B002F045FEFE4D4FF0010AED
:102F8000A5F15009A88049F2413B45F2103645F2BF
:102F9000105441F6631818B102F014FD02F08BB919
:102FA000F5480027016841F002010160006810A99E
:102FB00000F0020000902020CDE9100A0320CDE9A6
:102FC00012A0EE48FDF710FE4FF020414846C9F828
:102FD0000010EB49C0E901171021C9F80C70C0E9D5
:102FE0000471C9F818700902C9F81C70C0E90971A8
:102FF0008900C0E90B71C9F834708901C9E90E7103
:1030000046210B910F20CDE90907CDE90207049075
:10301000D8480F9702AA09A908975038FFF7C9FBAB
:10302000322004F0A9FBD32002F0E0FB02F06EF99D
:10303000A88002F06BF9A88002F068F94FF6FF72E1
:1030400002EA0020A88002F061F9A9885F460843DF
:10305000A880B84248D0D42002F0C8FB02F056F94C
:10306000A88002F053F9A88002F050F902EA00208B
:10307000A88002F04BF9A9880843A880B04233D059
:103080004FF45A4002F0B2FB02F040F9A8804FF42E
:103090005B4002F0ABFB02F039F902EA0020A880A5
:1030A0004FF45C4002F0A2FB02F030F9A98808431B
:1030B000A880B0F5004F7DD0A04215D0A12002F02D
:1030C00095FB02F023F9A88002F020F902EA002023
:1030D000A88002F01BF9A9880843A0F5AE41A8809A
:1030E000613901D1A5F80480A988A6A0FDF708F9E7
:1030F000A888B8427ED1CF2002F078FB002002F0F1
:1031000069FBC12002F066FB302002F063FBED207A
:1031100002F06CFB642002F05DFB032002F05AFB1E
:10312000122002F057FB812002F054FBE82002F04D
:103130005DFB852002F04EFB102002F04BFB7A2055
:1031400002F048FBCB2002F051FB392002F042FB99
:103150002C2002F03FFB002002F03CFB342002F068
:1031600039FB022002F036FBF72002F03FFB202063
:1031700002F030FBEA2002F039FB002002F02AFBCB
:10318000002002F027FBC02002F030FB1B2002F0E1
:1031900021FBC12002F02AFB012002F01BFBC5200D
:1031A00002F024FB302002F015FB302002F012FB6D
:1031B000C72000E0B7E002F019FBB72002F00AFBDD
:1031C000362002F013FB482002F004FB3A2002F004
:1031D0000DFB552002F0FEFAB12002F007FB0020A3
:1031E00002F0F8FA1A2002F0F5FAB62002F0FEFA20
:1031F0000A2000E099E002F0EDFAA22002F0EAFADB
:10320000F22002F0F3FA002002F0E4FA262002F0A5
:10321000EDFA012002F0DEFAE02002F0E7FA0F20DA
:1032200002F0D8FA2A2002F0D5FA282002F0D2FAC9
:10323000082002F0CFFA0E2002F0CCFA082002F0AB
:10324000C9FA542002F0C6FAA92002F0C3FA4320BA
:1032500002F0C0FA0A2002F0BDFA0F2002F0BAFA1A
:10326000002002F0B7FA002002F0B4FA002002F0C9
:10327000B1FA002002F0AEFAE12002F0B7FA002025
:1032800002F0A8FA152002F0A5FA172002F0A2FA1F
:10329000072002F09FFA112002F09CFA062002F0AB
:1032A00099FA2B2002F096FA562002F093FA3C206D
:1032B00002F090FA052002F08DFA102002F08AFA4E
:1032C0000F2002F087FA3F2002F084FA3F2002F03C
:1032D00081FA0F2002F07EFA2B2002F087FA0020FC
:1032E00002F078FA002002F075FA012002F072FA7A
:1032F0003F2002F06FFA2A2002F078FA002002F054
:1033000069FA002002F066FA002002F063FAEF206A
:1033100002F060FA112002F069FA782004F02CFA29
:10332000292001F00BBFAC80DEE6B0427ED1ED205B
:1033300002F05CFA012002F04DFAFE2002F04AFA97
:10334000EE2002F053FADE2002F044FA212002F0CF
:1033500041FAF12002F04AFA012002F03BFADF20A4
:1033600002F044FA102002F035FAC42002F03EFACE
:103370008F200FE0A80300203038024000040240F4
:10338000040100A0204C43442049443A25780D0A0A
:103390000000000002F01EFAC62002F027FA00200A
:1033A00002F018FAE22002F015FAE22002F012FA16
:1033B000E22002F00FFABF2002F018FAAA2002F071
:1033C00009FAB02002F012FA0D2002F003FA0020F0
:1033D00002F000FA0D2002F0FDF9002002F0FAF9E7
:1033E000112002F0F7F9002002F0F4F9192002F0A0
:1033F000F1F9002002F0EEF9212002F0EBF90020B3
:1034000002F0E8F92D2002F0E5F9002002F0E2F9DF
:103410003D2002F0DFF9002002F0DCF95D2002F02F
:10342000D9F9002002F0D6F95D2000E0FEE302F0B9
:10343000D1F9002002F0CEF9B12002F0D7F98020B6
:1034400002F0C8F9002002F0C5F98B2002F0C2F9A1
:10345000002002F0BFF9962002F0BCF9002002F033
:10346000B9F9B22002F0C2F9002002F0B3F900204D
:1034700002F0B0F9022002F0ADF9002002F0AAF942
:10348000032002F0A7F9002002F0A4F9B32002F013
:10349000ADF9002002F09EF9002002F09BF9002017
:1034A00002F098F9002002F095F9002002F092F95C
:1034B000002002F08FF9002002F08CF9002002F0C9
:1034C00089F9002002F086F9002002F083F900203B
:1034D00002F080F9002002F07DF9002002F07AF974
:1034E000002002F077F9002002F074F9002002F0C9
:1034F00071F9002002F06EF9002002F06BF9002053
:1035000002F068F9002002F065F9002002F062F98B
:10351000002002F05FF9002002F05CF9002002F0C8
:1035200059F9B42002F062F98B2002F053F900201F
:1035300002F050F9962002F04DF9002002F04AF90D
:10354000A12002F047F9002002F044F9B52002F072
:103550004DF9022002F03EF9002002F03BF9032071
:1035600002F038F9002002F035F9042002F032F9B7
:10357000002002F02FF9B62002F038F9002002F006
:1035800029F9002002F026F9B72002F02FF90020D7
:1035900002F020F9002002F01DF93F2002F01AF994
:1035A000002002F017F95E2002F014F9002002F06A
:1035B00011F9642002F00EF9002002F00BF98C20C2
:1035C00002F008F9002002F005F9AC2002F002F93F
:1035D000002002F0FFF8DC2002F0FCF8002002F0EE
:1035E000F9F8702002F0F6F8002002F0F3F89020CD
:1035F00002F0F0F8002002F0EDF8EB2002F0EAF81B
:10360000002002F0E7F8DC2002F0E4F8002002F0ED
:10361000E1F8B82002F0EAF8002002F0DBF8002020
:1036200002F0D8F8002002F0D5F8002002F0D2F81D
:10363000002002F0CFF8002002F0CCF8002002F0C9
:10364000C9F8002002F0C6F8BA2002F0CFF8242012
:1036500002F0C0F8002002F0BDF8002002F0BAF835
:10366000002002F0B7F8C12002F0C0F8202002F0DC
:10367000B1F8002002F0AEF8542002F0ABF80020C0
:1036800002F0A8F8FF2002F0A5F8002002F0A2F84E
:10369000C22002F0ABF80A2002F09CF8002002F0F1
:1036A00099F8042002F096F8002002F093F8C32065
:1036B00002F09CF83C2002F08DF8002002F08AF81D
:1036C0003A2002F087F8002002F084F8392002F056
:1036D00081F8002002F07EF8372002F07BF800200D
:1036E00002F078F83C2002F075F8002002F072F841
:1036F000362002F06FF8002002F06CF8322002F061
:1037000069F8002002F066F82F2002F063F800202C
:1037100002F060F82C2002F05DF8002002F05AF868
:10372000292002F057F8002002F054F8262002F079
:1037300051F8002002F04EF8242002F04BF800204F
:1037400002F048F8242002F045F8002002F042F888
:10375000232002F03FF8002002F03CF83C2002F069
:1037600039F8002002F036F8362002F033F8002055
:1037700002F030F8322002F02DF8002002F02AF892
:103780002F2002F027F8002002F024F82C2002F06D
:1037900021F8002002F01EF8292002F01BF800207A
:1037A00002F018F8262002F015F8002002F012F8B6
:1037B000242002F00FF8002002F00CF8242002F080
:1037C00009F8002002F006F8232002F003F8002098
:1037D00002F000F8C42002F009F8622001F0FAFFBC
:1037E000002001F0F7FF052001F0F4FF002001F0B8
:1037F000F1FF842001F0EEFF002001F0EBFFF0204C
:1038000001F0E8FF002001F0E5FF182001F0E2FFE1
:10381000002001F0DFFFA42001F0DCFF002001F018
:10382000D9FF182001F0D6FF002001F0D3FF50206F
:1038300001F0D0FF002001F0CDFF0C2001F0CAFF05
:10384000002001F0C7FF172001F0C4FF002001F0A5
:10385000C1FF952001F0BEFF002001F0BBFFF32067
:1038600001F0B8FF002001F0B5FFE62001F0B2FF43
:10387000002001F0AFFFC52001F0B8FF322001F0B9
:10388000A9FF002001F0A6FF442001F0A3FF0020C3
:1038900001F0A0FF652001F09DFF002001F09AFFDC
:1038A000762001F097FF002001F094FF882001F0BE
:1038B00091FF002001F08EFFC62001F097FF20202D
:1038C00001F088FF002001F085FF172001F082FF42
:1038D000002001F07FFF012001F07CFF002001F0BB
:1038E00079FFC72001F082FF002001F073FF002064
:1038F00001F070FF002001F06DFF002001F06AFF71
:10390000C82001F073FF002001F064FF002001F0E7
:1039100061FF002001F05EFF002001F05BFFC92085
:1039200001F064FF002001F055FF002001F052FF7C
:10393000002001F04FFF002001F04CFF002001F0BB
:1039400049FF002001F046FF002001F043FF002066
:1039500001F040FF002001F03DFF002001F03AFFA0
:10396000002001F037FF002001F034FF002001F0BB
:1039700031FF002001F02EFF002001F02BFF00207E
:1039800001F028FFE02001F031FF162001F022FFB6
:10399000002001F01FFF1C2001F01CFF002001F09F
:1039A00019FF212001F016FF002001F013FF36203F
:1039B00001F010FF002001F00DFF462001F00AFF8A
:1039C000002001F007FF522001F004FF002001F069
:1039D00001FF642001F0FEFE002001F0FBFE7A20D2
:1039E00001F0F8FE002001F0F5FE8B2001F0F2FE60
:1039F000002001F0EFFE992001F0ECFE002001F024
:103A0000E9FEA82001F0E6FE002001F0E3FEB92067
:103A100001F0E0FE002001F0DDFEC42001F0DAFE3E
:103A2000002001F0D7FECA2001F0D4FE002001F0F2
:103A3000D1FED22001F0CEFE002001F0CBFED92035
:103A400001F0C8FE002001F0C5FEE02001F0C2FE3A
:103A5000002001F0BFFEF32001F0BCFE002001F0C9
:103A6000B9FEE12001F0C2FE162001F0B3FE0020F5
:103A700001F0B0FE1C2001F0ADFE002001F0AAFE16
:103A8000222001F0A7FE002001F0A4FE362001F064
:103A9000A1FE002001F09EFE452001F09BFE0020CB
:103AA00001F098FE522001F095FE002001F092FEF8
:103AB000642001F08FFE002001F08CFE7A2001F0DE
:103AC00089FE002001F086FE8B2001F083FE00209D
:103AD00001F080FE992001F07DFE002001F07AFEC9
:103AE000A82001F077FE002001F074FEB92001F05B
:103AF00071FE002001F06EFEC42001F06BFE00207C
:103B000001F068FECA2001F065FE002001F062FEAF
:103B1000D22001F05FFE002001F05CFED82001F011
:103B200059FE002001F056FEE02001F053FE002077
:103B300001F050FEF32001F04DFE002001F04AFE9E
:103B4000E22001F053FE052001F044FE002001F0C8
:103B500041FE0B2001F03EFE002001F03BFE1B2049
:103B600001F038FE002001F035FE342001F032FE75
:103B7000002001F02FFE442001F02CFE002001F077
:103B800029FE4F2001F026FE002001F023FE6120D7
:103B900001F020FE002001F01DFE792001F01AFE48
:103BA000002001F017FE882001F014FE002001F033
:103BB00011FE972001F00EFE002001F00BFEA62062
:103BC00001F008FE002001F005FEB72001F002FE22
:103BD000002001F0FFFDC22001F0FCFD002001F0FB
:103BE000F9FDC72001F0F6FD002001F0F3FDD12022
:103BF00001F0F0FD002001F0EDFDD62001F0EAFD1E
:103C0000002001F0E7FDDD2001F0E4FD002001F0DF
:103C1000E1FDF32001F0DEFD002001F0DBFDE320FB
:103C200001F0E4FD052001F0D5FD00E00AE30020ED
:103C300001F0D0FD0A2001F0CDFD002001F0CAFD09
:103C40001C2001F0C7FD002001F0C4FD332001F06D
:103C5000C1FD002001F0BEFD442001F0BBFD0020AD
:103C600001F0B8FD502001F0B5FD002001F0B2FDDB
:103C7000622001F0AFFD002001F0ACFD782001F0E2
:103C8000A9FD002001F0A6FD882001F0A3FD002081
:103C900001F0A0FD972001F09DFD002001F09AFDAC
:103CA000A62001F097FD002001F094FDB72001F05F
:103CB00091FD002001F08EFDC22001F08BFD00205F
:103CC00001F088FDC72001F085FD002001F082FD94
:103CD000D12001F07FFD002001F07CFDD52001F016
:103CE00079FD002001F076FDDD2001F073FD00205C
:103CF00001F070FDF32001F06DFD002001F06AFD80
:103D0000E42001F073FD012001F064FD002001F0CA
:103D100061FD012001F05EFD002001F05BFD02204D
:103D200001F058FD002001F055FD2A2001F052FD60
:103D3000002001F04FFD3C2001F04CFD002001F07F
:103D400049FD4B2001F046FD002001F043FD5D20C0
:103D500001F040FD002001F03DFD742001F03AFD2E
:103D6000002001F037FD842001F034FD002001F037
:103D700031FD932001F02EFD002001F02BFDA2204B
:103D800001F028FD002001F025FDB32001F022FD07
:103D9000002001F01FFDBE2001F01CFD002001F0FD
:103DA00019FDC42001F016FD002001F013FDCD2007
:103DB00001F010FD002001F00DFDD32001F00AFDFF
:103DC000002001F007FDDD2001F004FD002001F0DE
:103DD00001FDF32001F0FEFC002001F0FBFCE520DA
:103DE00001F004FD002001F0F5FC002001F0F2FCE0
:103DF000002001F0EFFC002001F0ECFC022001F0BB
:103E0000E9FC002001F0E6FC292001F0E3FC0020A1
:103E100001F0E0FC3C2001F0DDFC002001F0DAFCC8
:103E20004B2001F0D7FC002001F0D4FC5D2001F014
:103E3000D1FC002001F0CEFC742001F0CBFC00206E
:103E400001F0C8FC842001F0C5FC002001F0C2FC98
:103E5000932001F0BFFC002001F0BCFCA22001F087
:103E6000B9FC002001F0B6FCB32001F0B3FC002047
:103E700001F0B0FCBE2001F0ADFC002001F0AAFC76
:103E8000C42001F0A7FC002001F0A4FCCD2001F02B
:103E9000A1FC002001F09EFCD32001F09BFC00203F
:103EA00001F098FCDC2001F095FC002001F092FC70
:103EB000F32001F08FFC002001F08CFCE62001F0E3
:103EC00095FC112001F086FC002001F083FC3420D9
:103ED00001F080FC002001F07DFC562001F07AFC0E
:103EE000002001F077FC762001F074FC002001F046
:103EF00071FC772001F06EFC002001F06BFC662065
:103F000001F068FC002001F065FC882001F062FCF3
:103F1000002001F05FFC992001F05CFC002001F022
:103F200059FCBB2001F056FC002001F053FC992005
:103F300001F050FC002001F04DFC662001F04AFC2D
:103F4000002001F047FC552001F044FC002001F066
:103F500041FC552001F03EFC002001F03BFC4520D7
:103F600001F038FC002001F035FC432001F032FC68
:103F7000002001F02FFC442001F02CFC002001F077
:103F800029FCE72001F032FC322001F023FC002064
:103F900001F020FC552001F01DFC002001F01AFC6E
:103FA000762001F017FC002001F014FC662001F0DF
:103FB00011FC002001F00EFC672001F00BFC00203A
:103FC00001F008FC672001F005FC002001F002FC74
:103FD000872001F0FFFB002001F0FCFB992001F09D
:103FE000F9FB002001F0F6FBBB2001F0F3FB002001
:103FF00001F0F0FB992001F0EDFB002001F0EAFB5D
:10400000772001F0E7FB002001F0E4FB442001F001
:10401000E1FB002001F0DEFB562001F0DBFB00207D
:1040200001F0D8FB232001F0D5FB002001F0D2FBEA
:10403000332001F0CFFB002001F0CCFB452001F044
:10404000C9FB002001F0C6FBE82001F0CFFB0020F7
:1040500001F0C0FB002001F0BDFB992001F0BAFB8C
:10406000002001F0B7FB872001F0B4FB002001F035
:10407000B1FB882001F0AEFB002001F0ABFB772004
:1040800001F0A8FB002001F0A5FB662001F0A2FBD7
:10409000002001F09FFB882001F09CFB002001F034
:1040A00099FBAA2001F096FB002001F093FBBB20B6
:1040B00001F090FB002001F08DFB992001F08AFBBC
:1040C000002001F087FB662001F084FB002001F056
:1040D00081FB552001F07EFB002001F07BFB552089
:1040E00001F078FB002001F075FB442001F072FB29
:1040F000002001F06FFB442001F06CFB002001F078
:1041000069FB552001F066FB002001F063FBE9200C
:1041100001F06CFBAA2001F05DFB002001F05AFBCE
:10412000002001F057FB002001F054FB002001F0BB
:104130005DFBAA2001F04EFBCF2001F057FB0020D1
:1041400001F048FB002001F045FB002001F042FB9C
:10415000002001F03FFB002001F03CFB002001F0BB
:1041600039FB002001F036FB002001F033FB00207A
:1041700001F030FB002001F02DFB002001F02AFBB4
:10418000002001F027FB002001F024FB002001F0BB
:1041900021FB002001F01EFB002001F01BFB002092
:1041A00001F018FBF02001F021FB002001F012FBD0
:1041B000502001F00FFB002001F00CFB002001F06B
:1041C00009FB002001F006FBF32001F00FFB0020AB
:1041D00001F000FBF92001F009FB062001F0FAFADA
:1041E000102001F0F7FA292001F0F4FA002001F084
:1041F000F1FA3A2001F0FAFA552001F0EBFA112019
:1042000001F0F4FA642003F0B7FA292001F0EEFA85
:10421000352001F0EBFA002001F0DCFA512001F02A
:10422000E5FAFF2001F0D6FA532001F0DFFA2C2046
:1042300001F0D0FA552001F0D9FA822001F0CAFA33
:104240002C20FDE3A0427DD14FF470435521184648
:1042500001F0E2FA4FF20107AA21384601F0DCFA38
:104260005221781C01F0D8FA0821B81C01F0D4FAC8
:104270000121F81C01F0D0FA0D214FF4304001F07B
:10428000CBFA0D214BF2010001F0C6FA0D214BF2E1
:10429000020001F0C1FA34214FF4364001F0BCFABB
:1042A00034214BF2016001F0B7FA34214BF2026085
:1042B00001F0B2FA0D214FF4314001F0ADFA0D21B9
:1042C0004BF2011001F0A8FA0D214BF2021001F09F
:1042D000A3FA34214FF4374001F09EFA34214BF217
:1042E000017001F099FA34214BF2027001F094FA56
:1042F00000214FF4324001F08FFA00214BF20120EF
:1043000001F08AFA00214BF2022001F085FA242103
:104310004FF4384001F080FA24214BF6010001F0FF
:104320007BFA24214BF6020001F076FA01214FF4CA
:104330003F4001F071FA0F214FF4334001F06CFA65
:104340000F2100E0FEE34BF2013001F065FA0F218E
:104350004BF2023001F060FA34214FF4394001F0A1
:104360005BFA34214BF6011001F056FA34214BF67A
:10437000021001F051FA08214FF4354001F04CFAD7
:1043800008214BF2015001F047FA08214BF202508C
:1043900001F042FA03214FF4424001F03DFA24219A
:1043A0004FF43A4001F038FA24214BF6012001F095
:1043B00033FA24214BF6022001F02EFA00214FF4AB
:1043C0003C4001F029FA78214BF6014001F024FA33
:1043D00000214BF6024001F01FFA00214FF43D404E
:1043E00001F01AFA78214BF6015001F015FA00217C
:1043F0004BF6025001F010FA00214FF43E4001F05C
:104400000BFA64214BF6016001F006FA00214FF42B
:10441000514001F001FA33214DF2011001F0FCF995
:1044200000214DF2021001F0F7F934214DF2031092
:1044300001F0F2F900214DF2041001F0EDF93A21FA
:104440004DF2051001F0E8F900214DF2061001F0DF
:10445000E3F94A214DF2071001F0DEF900214DF297
:10446000081001F0D9F95C214DF2091001F0D4F9DE
:1044700000214DF20A1001F0CFF981214DF20B100D
:1044800001F0CAF900214DF20C1001F0C5F9A62186
:104490004DF20D1001F0C0F900214DF20E1001F0A7
:1044A000BBF9E5214DF20F1001F0B6F901214DF2F3
:1044B000101001F0B1F913214DF2111001F0ACF917
:1044C00001214DF2121001F0A7F954214DF2131001
:1044D00001F0A2F901214DF2141001F09DF98221A1
:1044E0004DF2151001F098F901214DF2161001F06E
:1044F00093F9CA214DF2171001F08EF902214DF205
:10450000181001F089F900214DF2191001F084F919
:1045100002214DF21A1001F07FF901214DF21B101A
:1045200001F07AF902214DF21C1001F075F93421E5
:104530004DF21D1001F070F902214DF21E1001F034
:104540006BF967214DF21F1001F066F902214DF25F
:10455000201001F061F984214DF2211001F05CF985
:1045600002214DF2221001F057F9A4214DF223103F
:1045700001F052F902214DF2241001F04DF9B7215A
:104580004DF2251001F048F902214DF2261001F0FC
:1045900043F9CF214DF2271001F03EF902214DF2EF
:1045A000281001F039F9DE214DF2291001F034F91B
:1045B00002214DF22A1001F02FF9F2214DF22B10B9
:1045C00001F02AF902214DF22C1001F025F9FE210B
:1045D0004DF22D1001F020F903214DF22E1001F0C3
:1045E0001BF910214DF22F1001F016F903214DF2A5
:1045F000301001F011F933214DF2311001F00CF9B6
:1046000003214DF2321001F007F96D214DF2331004
:1046100001F002F900214FF4524001F0FDF833217E
:104620004DF2012001F0F8F800214DF2022001F0D6
:10463000F3F834214DF2032001F0EEF800214DF2A1
:10464000042001F0E9F83A214DF2052001F0E4F8E8
:1046500000214DF2062001F0DFF84A214DF207203B
:1046600001F0DAF800214DF2082001F0D5F85C21C4
:104670004DF2092001F0D0F800214DF20A2001F09E
:10468000CBF881214DF20B2001F0C6F800214DF24C
:104690000C2001F0C1F8A6214DF20D2001F0BCF86C
:1046A00000214DF20E2001F0B7F8E5214DF20F2068
:1046B00001F0B2F801214DF2102001F0ADF8132104
:1046C0004DF2112001F0A8F801214DF2122001F065
:1046D000A3F854214DF2132001F09EF801214DF270
:1046E000142001F099F882214DF2152001F094F880
:1046F00001214DF2162001F08FF8CA214DF217204A
:1047000001F08AF802214DF2182001F085F800210D
:104710004DF2192001F080F802214DF21A2001F02B
:104720007BF801214DF21B2001F076F802214DF2B9
:104730001C2001F071F834214DF21D2001F06CF8BD
:1047400002214DF21E2001F067F867214DF21F2073
:1047500001F062F802214DF2202001F05DF8842181
:104760004DF2212001F058F802214DF2222001F0F3
:1047700053F8A4214DF2232001F04EF802214DF20E
:10478000242001F049F8B7214DF2252001F044F82A
:1047900002214DF2262001F03FF8CF214DF22720D3
:1047A00001F03AF802214DF2282001F035F8DE211F
:1047B0004DF2292001F030F802214DF22A2001F0BB
:1047C0002BF8F2214DF22B2001F026F802214DF2B8
:1047D0002C2001F021F8FE214DF22D2001F01CF8D3
:1047E00003214DF22E2001F017F810214DF22F2059
:1047F00001F012F803214DF2302001F00DF83321C1
:104800004DF2312001F008F803214DF2322001F081
:1048100003F86D214DF2332000F0FEFF00214FF42C
:10482000534000F0F9FF33214DF2013000F0F4FF66
:1048300000214DF2023000F0EFFF34214DF2033041
:1048400000F0EAFF00214DF2043000F0E5FF3A21CC
:104850004DF2053000F0E0FF00214DF2063000F08F
:10486000DBFF4A214DF2073000F0D6FF00214DF268
:10487000083000F0D1FF5C214DF2093000F0CCFF90
:1048800000214DF20A3000F0C7FF81214DF20B30BC
:1048900000F0C2FF00214DF20C3000F0BDFFA62158
:1048A0004DF20D3000F0B8FF00214DF20E3000F057
:1048B000B3FFE5214DF20F3000F0AEFF01214DF2C4
:1048C000103000F0A9FF13214DF2113000F0A4FFC9
:1048D00001214DF2123000F09FFF54214DF21330B0
:1048E00000F09AFF01214DF2143000F095FF822173
:1048F0004DF2153000F090FF01214DF2163000F01E
:104900008BFFCA214DF2173000F086FF02214DF2D5
:10491000183000F081FF00214DF2193000F07CFFCB
:1049200002214DF21A3000F077FF01214DF21B30C9
:1049300000F072FF02214DF21C3000F06DFF3421B7
:104940004DF21D3000F068FF02214DF21E3000F0E4
:1049500063FF67214DF21F3000F05EFF02214DF230
:10496000203000F059FF84214DF2213000F054FF37
:1049700002214DF2223000F04FFFA4214DF22330EE
:1049800000F04AFF02214DF2243000F045FFB7212C
:104990004DF2253000F040FF02214DF2263000F0AC
:1049A0003BFFCF214DF2273000F036FF02214DF2C0
:1049B000283000F031FFDE214DF2293000F02CFFCD
:1049C00002214DF22A3000F027FFF2214DF22B3068
:1049D00000F022FF02214DF22C3000F01DFFFE21DD
:1049E0004DF22D3000F018FF03214DF22E3000F073
:1049F00013FF10214DF22F3000F00EFF03214DF276
:104A0000303000F009FF33214DF2313000F004FF67
:104A100003214DF2323000F0FFFE6D214DF23330B4
:104A200000F0FAFE00214FF4544000F0F5FE33216F
:104A30004DF2014000F0F0FE00214DF2024000E096
:104A40007CE300F0E9FE34214DF2034000F0E4FE87
:104A500000214DF2044000F0DFFE3A214DF2054006
:104A600000F0DAFE00214DF2064000F0D5FE4A21AA
:104A70004DF2074000F0D0FE00214DF2084000F05A
:104A8000CBFE5C214DF2094000F0C6FE00214DF244
:104A90000A4000F0C1FE81214DF20B4000F0BCFE47
:104AA00000214DF20C4000F0B7FEA6214DF20D4062
:104AB00000F0B2FE00214DF20E4000F0ADFEE52107
:104AC0004DF20F4000F0A8FE01214DF2104000F021
:104AD000A3FE13214DF2114000F09EFE01214DF284
:104AE000124000F099FE54214DF2134000F094FE64
:104AF00001214DF2144000F08FFE82214DF215404D
:104B000000F08AFE01214DF2164000F085FECA2118
:104B10004DF2174000F080FE02214DF2184000F0E7
:104B20007BFE00214DF2194000F076FE02214DF28D
:104B30001A4000F071FE01214DF21B4000F06CFEA6
:104B4000022100E0FDE24DF21C4000F065FE342140
:104B50004DF21D4000F060FE02214DF21E4000F0BB
:104B60005BFE67214DF21F4000F056FE02214DF220
:104B7000204000F051FE84214DF2214000F04CFE17
:104B800002214DF2224000F047FEA4214DF22340C5
:104B900000F042FE02214DF2244000F03DFEB7211C
:104BA0004DF2254000F038FE02214DF2264000F083
:104BB00033FECF214DF2274000F02EFE02214DF2B0
:104BC000284000F029FEDE214DF2294000F024FEAD
:104BD00002214DF22A4000F01FFEF2214DF22B403F
:104BE00000F01AFE02214DF22C4000F015FEFE21CD
:104BF0004DF22D4000F010FE03214DF22E4000F04A
:104C00000BFE10214DF22F4000F006FE03214DF265
:104C1000304000F001FE33214DF2314000F0FCFD48
:104C200003214DF2324000F0F7FD6D214DF233408B
:104C300000F0F2FD00214FF4554000F0EDFD33216E
:104C40004DF2015000F0E8FD00214DF2025000F05D
:104C5000E3FD34214DF2035000F0DEFD00214DF262
:104C6000045000F0D9FD3A214DF2055000F0D4FD7A
:104C700000214DF2065000F0CFFD4A214DF20750C1
:104C800000F0CAFD00214DF2085000F0C5FD5C2186
:104C90004DF2095000F0C0FD00214DF20A5000F025
:104CA000BBFD81214DF20B5000F0B6FD00214DF20D
:104CB0000C5000F0B1FDA6214DF20D5000F0ACFDFE
:104CC00000214DF20E5000F0A7FDE5214DF20F50EE
:104CD00000F0A2FD01214DF2105000F09DFD1321C6
:104CE0004DF2115000F098FD01214DF2125000F0EC
:104CF00093FD54214DF2135000F08EFD01214DF231
:104D0000145000F089FD82214DF2155000F084FD11
:104D100001214DF2165000F07FFDCA214DF21750CF
:104D200000F07AFD02214DF2185000F075FD0021CF
:104D30004DF2195000F070FD02214DF21A5000F0B2
:104D40006BFD01214DF21B5000F066FD02214DF27A
:104D50001C5000F061FD34214DF21D5000F05CFD4F
:104D600002214DF21E5000F057FD67214DF21F50F9
:104D700000F052FD02214DF2205000F04DFD842143
:104D80004DF2215000F048FD02214DF2225000F07A
:104D900043FDA4214DF2235000F03EFD02214DF2CF
:104DA000245000F039FDB7214DF2255000F034FDBC
:104DB00002214DF2265000F02FFDCF214DF2275059
:104DC00000F02AFD02214DF2285000F025FDDE21E1
:104DD0004DF2295000F020FD02214DF22A5000F042
:104DE0001BFDF2214DF22B5000F016FD02214DF279
:104DF0002C5000F011FDFE214DF22D5000F00CFD65
:104E000003214DF22E5000F007FD10214DF22F50DE
:104E100000F002FD03214DF2305000F0FDFC332183
:104E20004DF2315000F0F8FC03214DF2325000F009
:104E3000F3FC6D214DF2335000F0EEFC00214FF4F5
:104E4000564000F0E9FC33214DF2016000F0E4FC33
:104E500000214DF2026000F0DFFC34214DF20360CE
:104E600000F0DAFC00214DF2046000F0D5FC3A219C
:104E70004DF2056000F0D0FC00214DF2066000F01C
:104E8000CBFC4A214DF2076000F0C6FC00214DF238
:104E9000086000F0C1FC5C214DF2096000F0BCFC30
:104EA00000214DF20A6000F0B7FC81214DF20B6049
:104EB00000F0B2FC00214DF20C6000F0ADFCA62128
:104EC0004DF20D6000F0A8FC00214DF20E6000F0E4
:104ED000A3FCE5214DF20F6000F09EFC01214DF294
:104EE000106000F099FC13214DF2116000F094FC69
:104EF00001214DF2126000F08FFC54214DF213603D
:104F000000F08AFC01214DF2146000F085FC822142
:104F10004DF2156000F080FC01214DF2166000F0AA
:104F20007BFCCA214DF2176000F076FC02214DF2A5
:104F3000186000F071FC00214DF2196000F06CFC6B
:104F400002214DF21A6000F067FC01214DF21B6056
:104F500000F062FC02214DF21C6000F05DFC342187
:104F60004DF21D6000F058FC02214DF21E6000F071
:104F700053FC67214DF21F6000F04EFC02214DF200
:104F8000206000F049FC84214DF2216000F044FCD7
:104F900002214DF2226000F03FFCA4214DF223607B
:104FA00000F03AFC02214DF2246000F035FCB721FC
:104FB0004DF2256000F030FC02214DF2266000F039
:104FC0002BFCCF214DF2276000F026FC02214DF290
:104FD000286000F021FCDE214DF2296000F01CFC6D
:104FE00002214DF22A6000F017FCF2214DF22B60F5
:104FF00000F012FC02214DF22C6000F00DFCFE21AD
:105000004DF22D6000F008FC03214DF22E6000F0FF
:1050100003FC10214DF22F6000F0FEFB03214DF246
:10502000306000F0F9FB33214DF2316000F0F4FB09
:1050300003214DF2326000F0EFFB6D214DF2336041
:1050400000F0EAFB5521184600F0E6FBAA2138469D
:1050500000F0E2FB5221781C00F0DEFB0821B81CB6
:1050600000F0DAFB0021F81C00F0D6FBCC214FF455
:10507000314000F0D1FB00214BF2011000F0CCFBDD
:1050800005214FF4364000F0C7FB70214FF4374044
:1050900000F0C2FB70214BF2017000F0BDFB01215A
:1050A0004FF4384000F0B8FB03214BF6010000F04C
:1050B000B3FB03214BF6020000F0AEFB03214BF6DD
:1050C000030000F0A9FB02214FF43C4000F0A4FBD8
:1050D00000214BF6014000F09FFB00214BF60240FF
:1050E00000F09AFBD0214FF4494000F095FB0221DB
:1050F0004CF6011000F090FB50214CF6021000F02D
:105100008BFB50214CF6031000F086FB50214CF62F
:10511000041000F081FB00214FF4545000F07CFBA0
:1051200055214FF4685000F077FB4FF4885000F0A1
:105130005DFB782002F038FB4FF4245000F056FB62
:10514000B9E04045FCD1E22000F050FB1D2000F00A
:1051500041FB022000F03EFB042000F03BFB6420FA
:1051600002F022FBE02000F041FB012000F032FBC6
:105170000A2002F001FBE02000F038FB032000F0E1
:1051800029FB0C2002F0F8FA012000F02FFB0A2086
:1051900002F0F2FAE62000F029FB2F2000F01AFBC3
:1051A000FF2000F017FBFF2000F014FBB02000F000
:1051B0001DFB202000F00EFB002000F00BFB032065
:1051C00000F008FB40F21F3000F004FB012000F06B
:1051D00001FB40F2DF1000F0FDFA002000F0FAFAC7
:1051E000B42000F003FB042000F0F4FA40F21F406A
:1051F00000F0F0FA002000F0EDFA2E2000F0EAFABC
:10520000002000F0E7FA002000F0E4FA002000F0AF
:10521000E1FA002000F0DEFAB62000F0E7FA022002
:1052200000F0D8FA4FF4037000F0D4FA002000F038
:10523000D1FA172000F0CEFA152000F0CBFA0020AA
:1052400000F0C8FA002000F0C5FAF02000F0CEFA15
:10525000032000F0BFFA292000F0C8FAD02000F0A7
:10526000C5FA002000F0B6FABE2000F0BFFA052013
:1052700000F0B0FAFE2000F0ADFA012000F0AAFA2A
:10528000002000F0A7FA002000F0A4FA002000F0AF
:10529000A1FAB82000F0AAFA032000F09BFA01203E
:1052A00000F098FABA2000F0A1FA012000F092FA7A
:1052B000642000F035F8A888584505D0B04203D0E6
:1052C000A04201D0404509D1042002900490D9E9C0
:1052D000010202A9D9F83030FBF716FB0020FDF7D8
:1052E00021FD0549C1F894A24FF6FF70FDF7F6FCC9
:1052F00015B0BDE8F08F0000008040420346012059
:1053000000E05843491EC9B2FBD27047034808B5B4
:105310000088ADF80000BDF8000008BD000008607E
:1053200010B50246BE2000F061FA052000F052FAE6
:10533000104606F00CFC9FED0C1B53EC112B06F0F5
:1053400019FC06F0D7FB80B200F044FA012000F00F
:1053500041FAFF2000F03EFA002000F03BFABDE8E1
:105360001040002000F036BA666666666666044045
:10537000F0B56C4D00232946AA79898841F663145B
:10538000012A01D01AB11BE0A14202D118E0A142CA
:1053900016D1082814D2DFE800F00406080A0C0E23
:1053A000101206200CE007200AE0042008E0052087
:1053B00006E0012004E0002002E0032000E00220DB
:1053C000A1F5134745F2103245F21056413F05D082
:1053D000914203D0B14201D0A14277D1082812D224
:1053E000DFE800F0110406080A0C0E1080230AE022
:1053F000402308E0C02306E0202304E0602302E00D
:10540000A02300E0E023B14202D14FF4585000E065
:105410003620914205D0B14203D0A14201D043F0E1
:105420000803194600F0F8F9AA88A2420AD09806A3
:105430002888698802D5884202D303E0884201D9CE
:10544000298068806889B24241D100F0CFF90020FC
:1054500000F0C0F96889401C80B200F0C7F9002054
:1054600000F0B8F96889801C80B200F0BFF9288884
:10547000401EC0F30F2000F0ADF96889C01C80B257
:1054800000F0B4F92878401EC0B200F0A3F9A88952
:1054900000F0ACF9002000F09DF9A889401C80B212
:1054A00000F0A4F9002000F095F9A889801C80B2D2
:1054B00000F09CF96888401EC0F30F2000F08AF9C4
:1054C000A889C01C80B200F091F922E028E000F029
:1054D0008DF9002000F07EF9002000F07BF928888B
:1054E000401EC0F30F2000F075F92878401EC0B2AE
:1054F00000F070F9A88900F079F9002000F06AF94D
:10550000002000F067F96888401EC0F30F2000F00B
:1055100061F9A878BDE8F040401EC0B200F05AB969
:10552000F0BD0000A8030020F0B53F4D0C46024638
:10553000060AA9882846270A4089A1F51343413B5A
:1055400028D0A1F5A643103B24D0A1F5C853633B56
:105550002FD0A1F5AA43103B64D100F047F93046A3
:1055600000F038F96889401C80B200F03FF9D0B2F1
:1055700000F030F9A88900F039F9384600F02AF92E
:10558000A889401C80B200F031F9E0B2BDE8F040DB
:1055900000F020B900F02AF9304600F01BF9D0B233
:1055A00000F018F9A88900F021F9384600F012F946
:1055B000EBE7A97929B300F019F9304600F00AF9B0
:1055C000D0B200F007F92888401EC0F30F2000F089
:1055D00001F92878401EC0B200F0FCF8A88900F05C
:1055E00005F9384600F0F6F8E0B200F0F3F8688804
:1055F000401EC0F30F2000F0EDF8A878401EC0B2A6
:10560000C4E72988891A491E8AB200F0EFF8002001
:1056100000F0E0F8002000F0DDF8100A00F0DAF801
:10562000D0B2D9E7F0BD0000A80300202DE9F84F63
:1056300082461F460E468B46580700D0012000EBDD
:10564000D700790810FB01F0203AC0B202F0FF0940
:105650000025009047E00C2F10D0102F12D0182FEB
:1056600014D0202F42D1224901EBC9104FF000087D
:10567000445D200610D51F48026811E009EB49007F
:105680001D4906E01D4901EB0910EFE71C4909EB34
:10569000C90001EB8000E9E70A9828B9154842687B
:1056A00031465046FDF7B8FB6006040E1548761CDF
:1056B000B6B24088B04219D9A6EB0B00B84209D166
:1056C0000AF101001FFA80FA0E485E460188514532
:1056D0000CD906E008F1010000F0FF08B8F1080F4E
:1056E000C7D36D1CEDB200988542B4D3BDE8F88FE6
:1056F0004AD50008280000208ABD0008FEC1000825
:10570000EEC70008A80300202DE9FF4F81B0002755
:10571000DDF838B01D46924680463C46B9464FEA11
:105720005B0627E0281B401EC1B20A20FFF7E6FDFA
:10573000BAFBF0F00A21B0FBF1F201FB120027B92D
:10574000691E8C4201DA48B101273030C2B206FB33
:10575000048080B25B46CDF8009006E006FB048032
:1057600080B25B462022CDF800900299FFF75EFFE1
:10577000641CE4B2AC42D5D305B0BDE8F08F2DE98E
:10578000F84F044600F0FF0810190D46DDE90A76CF
:105790001FFA80FA58191FFA80F94FF0000B11E038
:1057A000544502D3E819444685B24D450FD23B46D5
:1057B00029462046CDF800B0FFF738FF04EB57002C
:1057C00084B2761C3278A2F120005E28E8D9BDE8C8
:1057D000F88F000001B5BDF80000ADF80000BDF87D
:1057E00000000149088008BD0000086001B5BDF84F
:1057F0000000ADF80000BDF800000149088008BDB8
:10580000FEFF0760024803490089088070470000D6
:10581000A8030020FEFF0760024A1080901C018050
:1058200070470000FEFF0760104810B5016886B0A1
:1058300041F0020101600068012100F002000590C2
:105840000320CDE90210CDE90001094C694620464C
:10585000FBF7CAF9012211462046FBF7B8FA0122EC
:1058600002212046FBF7B3FA06B010BD30380240E3
:105870000004024008B500900548018BC08A491E0B
:105880008BB2401E82B20021084600F045F808BDE8
:105890009404002000B58DB0082309920490009371
:1058A00006916846FBF7CCFC002800D001200DB023
:1058B00000BD000010B5084B1C465875A1888AB27F
:1058C000218889B220B1012801D1D9821A8310BD63
:1058D000DA82198310BD000094040020F0B50C4F4B
:1058E00094B23D46DFF82CC02B68EA692D7D7E7DA1
:1058F0005CF8255026B103FB01004243AC52F0BDD9
:105900007E68301A401E03FB001050432C52F0BD3D
:1059100094040020300000202DE9F043254EDDF8EE
:105920001C900024757D0DB1054606E077680D4694
:10593000B91A1A463B1A491E5B1E306896F814C005
:10594000DFF87480521B871A58F82CC0F66900FBE8
:10595000015006FB00C519487F1EBFB2066846F419
:105960000006066016484FF440360660022646637D
:105970000764066826F001060660C563591A4FF4ED
:10598000803303EB0242491C11434164C0F8389054
:10599000016841F0010101605A0102E0641C944277
:1059A00002D241688907F9D5816841F0020181601E
:1059B000BDE8F0839404002030000020303802401D
:1059C00000B002402DE9FF4100F01CF90146142708
:1059D00002250126634CA0F586404FF4F07847F28B
:1059E0008403423813D0EA034FF44870994222D11D
:1059F000C4E90008268166812D20A0811620E0815F
:105A0000D2212182608203214FF4C67033E056A078
:105A1000FAF776FC4FF48870C4E900800A202081F0
:105A20006581A781E581208204206082C20301464E
:105A30004FF490701FE0A1F5E04C4FF48063BCF18F
:105A4000160C07D0BCF1020218D0A1F5004017389F
:105A500019D01CE04FF41670C4E9003027810320F0
:105A600060818C20A081E781A02020820C206082B0
:105A700002214FF4B470FFF70DFF08E04FF4A0616E
:105A8000C4E9001003E04FF44070C4E90030384826
:105A90002268394F0280616841803648E56138608C
:105AA0003048364BA8380025C0E900358560C56010
:105AB0000561B4F808C0ACF1010343616389A3F147
:105AC0000108C0F81880B4F80C80C444ACF1010897
:105AD000C0F81C80B4F80E804344A3F10108C0F85C
